:020000040800F2
:1000000000100020D513000845130008471300080E
:1000100000000000000000000000000000000000E0
:10002000000000000000000000000000491300086C
:1000300000000000000000004B1300084D130008F2
:1000400025140008000000002514000825140008ED
:10005000251400082514000825140008251400089C
:1000600000000000251400082514000825140008CD
:10007000251400085513000825140008000000008E
:1000800065130008000000000000000025140008AF
:10009000000000002514000825140008251400089D
:1000A00000000000251400080000000025140008CE
:1000B0000000000000000000000000000000000040
:1000C00010B5064C2378002B07D1054B002B02D02E
:1000D000044800E000BF0123237010BD040000208D
:1000E0000000000094140008044B10B5002B03D04E
:1000F0000349044800E000BF10BDC04600000000F6
:100100000800002094140008002243088B4274D396
:1001100003098B425FD3030A8B4244D3030B8B4208
:1001200028D3030C8B420DD3FF22090212BA030C11
:100130008B4202D31212090265D0030B8B4219D3F2
:1001400000E0090AC30B8B4201D3CB03C01A524112
:10015000830B8B4201D38B03C01A5241430B8B425A
:1001600001D34B03C01A5241030B8B4201D30B0343
:10017000C01A5241C30A8B4201D3CB02C01A52416A
:10018000830A8B4201D38B02C01A5241430A8B422D
:1001900001D34B02C01A5241030A8B4201D30B0216
:1001A000C01A5241CDD2C3098B4201D3CB01C01A30
:1001B000524183098B4201D38B01C01A524143093A
:1001C0008B4201D34B01C01A524103098B4201D328
:1001D0000B01C01A5241C3088B4201D3CB00C01A95
:1001E000524183088B4201D38B00C01A524143080D
:1001F0008B4201D34B00C01A5241411A00D2014632
:10020000524110467047FFE701B5002000F006F8A4
:1002100002BDC0460029F7D076E770477047C04658
:1002200010B5040000F090FCFA218900FFF76CFF84
:1002300000F070F8012000222100404200F030F868
:10024000002010BD1023064A10B5116800200B4392
:100250001360FFF7E5FF00F0D3FF002010BDC0469C
:1002600000200240024A1368013313607047C04601
:1002700020000020014B18687047C0462000002075
:1002800037B50190FFF7F6FF019C0500631C5A1E6D
:100290009341E418FFF7EEFF401BA042FAD337BDAD
:1002A00070B58901002814DA0F23C0B20340083B5F
:1002B000114A9B089B009B18032210409040FC327F
:1002C0001500114085408140DC69AC432143D96170
:1002D00070BD032583082840A840FC352E00074A3E
:1002E0009B009B18C02286402940814092009C5868
:1002F000B44321439950EBE700ED00E000E100E05A
:100300001F2318401E3B8340014A13607047C046BC
:1003100000E100E0094A431E012093420DD8C021AC
:10032000074A08485360036A09061B021B0A0B436D
:10033000036200200723906013607047FFFFFF00F7
:1003400010E000E000ED00E0F0B50B6887B002932C
:1003500000230191029ADA4001D107B0F0BD0122D9
:100360009A4003920399029A0A40009200D18CE0CD
:10037000019A1021526816008E43022E0ED10725D5
:100380001D40AD000139A940DC08A4000419276A0A
:100390008F4301990969A9400F43276203245F0035
:1003A000BC40E4430568013E2540AC4603251540AA
:1003B000BD4061460D430560012E0FD80199866846
:1003C000CD682640BD4035438560466803991509D0
:1003D0008E4301210D409D4035434560C56801991C
:1003E0002C408D688021BD4049052C43C4600A42E1
:1003F0004BD00121264C0326A5691E400D43A56163
:10040000A4699D080C400594059C0F242149AD006A
:10041000B6006D18B4409021AF68C905A743002409
:1004200088420CD01C490134884208D01B49013451
:10043000884204D01A490334884200D1023CB440B7
:1004400000993C430E00AC60164CCD4327683E43F8
:10045000D10301D43E002E4026606768009E3E43D3
:10046000910301D43E002E406660A768009E3E4383
:10047000D10201D43E002E40A660E668009F3743BB
:10048000920201D42E403700E760013362E7C04694
:10049000001002400000014000040048000800482D
:1004A000000C004800040140002A01D0816170471F
:1004B0008162FCE770B504000120002C3FD02500CC
:1004C00041352B78DBB2002B05D12200403213706E
:1004D000200000F0ADFE242301212B702368E0688A
:1004E0001A68A6688A431A6061681A4A0A401A6143
:1004F0009968194A11409960012821D18021090287
:10050000314399605868154901435960D968002002
:100510000A40DA60616922690A43A16909020A4353
:10052000DA60216AE2690A431A60012219680A4303
:100530001A60202360642B7020634234207070BDE9
:1005400084210902314399600228DBD1802109010D
:100550005960D7E7FFFFFFF0FF7FFFFF0080000239
:10056000F0B50400413422780300D2B20220202AE0
:1005700018D11D0040352E78012E13D01B68223073
:1005800020701E68233886431E601E68064F3E405A
:100590001E601E6831431960196808431860002006
:1005A00022702870F0BDC046FFEFFFFFF0B50500D8
:1005B00041352A780300D2B20220202A17D11C002C
:1005C00040342678012E12D01B68223028701E6815
:1005D000233886431E601E68054F09023E403143A2
:1005E000196019680843186000202A702070F0BD57
:1005F000FFF0FFFFF0B5036885B00500DB072FD4DF
:100600002B689B0700D581E02B681B0700D5BCE059
:100610002B685B0700D5DFE02B68DB061AD56A691B
:10062000B54C0423012A00D04BE1616B02260B4339
:100630006363636B1A436263FFF71CFE0700636B1F
:10064000334200D136E1F821626BAB698A43DB00AB
:1006500013436363296A002900D059E1002013E0A5
:100660000C21A54C62680A40042A06D063680B403E
:10067000082B0BD16368DB0308D523689B03BFD528
:100680006B68002BBCD1012005B0F0BD6B68012B5D
:1006900013D1802322685B0213432360FFF7EAFD36
:1006A00080260700B60223683342A9D1FFF7E2FD96
:1006B000C01B6428F7D90320E6E7002B16D1236876
:1006C0008E4A80261340236023688D4AB602134069
:1006D0002360FFF7CFFD07002368334200D18FE787
:1006E000FFF7C8FDC01B6428F6D9E4E7052B05D148
:1006F00080232268DB0213432360CAE723687F4A12
:100700001340236023687E4A1340C6E70C227A4CCC
:100710006368134206D063681340082B10D16368E6
:10072000DB030DD423689B0702D5EB68012BAAD10C
:10073000F82122682B698A43DB001343236063E7B7
:10074000EA680123002A0FD022680226134323609F
:10075000FFF790FD070023683342E9D1FFF78AFDD8
:10076000C01B0228F7D9A6E7226802269A43226016
:10077000FFF780FD07002368334200D144E7FFF70D
:1007800079FDC01B0228F6D995E7EA6901235A4C86
:10079000002A10D0626A022613436362FFF76AFDE3
:1007A0000700636A334200D032E7FFF763FDC01BE6
:1007B0000228F6D97FE7626A02269A436262FFF74F
:1007C00059FD0700636A334200D121E7FFF752FD6C
:1007D000C01B0228F6D96EE780220021464C520544
:1007E000E3690091134208D1E3691343E361E369CC
:1007F00013400393039B012300938027414E7F0006
:1008000033683B4206D0AB68012B13D1226A1343F5
:10081000236230E033683B433360FFF72BFD0190E8
:1008200033683B42EFD1FFF725FD019BC01A6428D6
:10083000F6D940E70122002B14D1236A0227934303
:100840002362236A033293432362FFF713FD0600FA
:10085000236A3B4225D0FFF70DFD2B4B801B9842AE
:10086000F6D928E7052B0BD1216A013B0B43236204
:10087000236A1A432262FFF7FDFC022706000DE0FF
:10088000236A934304222362236A9343C0E7FFF75A
:10089000F1FC1D4B801B984200D90CE7236A3B42B8
:1008A000F5D0009B012B00D0B6E6E369174A134050
:1008B000E361B1E6FFF7DEFCC01B022800D8BEE60C
:1008C000F9E6053203D1626B9A436263BBE6626B61
:1008D0000226134301226363636B93436363FFF751
:1008E000C9FC0700636B334200D1B3E6FFF7C2FCDB
:1008F000C01B0228F6D9DEE600100240FFFFFEFF13
:10090000FFFFFBFF0070004088130000FFFFFFEFB8
:100910000C22264C012063681340082B00D1B3E65B
:100920002368234A1340236002292FD1FFF7A2FC3A
:1009300080260700B6042368334221D10F22E36AE0
:100940009343EA6A1343E362696AAB6A62680B43E2
:10095000184980250A4013436360802322685B04A2
:1009600013432360FFF786FC0600AD0423682B4287
:1009700000D073E6FFF77EFC801B0228F6D99AE6CA
:10098000FFF778FCC01B0228D5D994E6FFF772FC6C
:1009900080250600AD0423682B4200D15EE6FFF7F8
:1009A00069FC801B0228F6D985E6C046001002408B
:1009B000FFFFFFFEFFFFC2FF70B5144C88B010228E
:1009C0002100684600F054FD210004AD10221031D2
:1009D000280000F04DFD0C220D4E73681A40082AC5
:1009E00011D10F206A46990C0140545CF26A024012
:1009F000A95CDB0305D50748FFF786FB604308B019
:100A000070BD0548FAE70348F9E7C046AC14000892
:100A10000010024000127A0000093D00F7B50122E3
:100A2000434C060023680F0013408B421CD33268EE
:100A3000930723D4D30729D4012322681A4097426D
:100A400067D333683B4C5B076AD4FFF7B5FF636835
:100A5000394A1B061B0FD35CD840384B1860002066
:100A6000FFF7DEFB002008E0236893430B4323607D
:100A7000236813409942DAD00120FEBDF0202D49B1
:100A80004B688343B06803434B60D3E7294D7268DA
:100A90002B68012A1AD19B03EED503216B688B4387
:100AA00013436B60FFF7E6FB73680190012B15D1D0
:100AB0000C226B681340042BBED0FFF7DBFB019BBD
:100AC000C01A1F4B9842F3D90320D6E7022A02D15D
:100AD0009B01E2D4D0E79B07DFD4CDE7022B12D0F5
:100AE0000C226B681342A7D0FFF7C4FB019BC01A0E
:100AF000134B9842F4D9E7E7FFF7BCFB019BC01A00
:100B00000F4B9842E0D80C226B681340082BF3D1AE
:100B100092E722689A43226022681A42ACD190E799
:100B20006368084A1340F268134363608DE7C04668
:100B30000020024000100240CC14000800000020F9
:100B400088130000FFF8FFFF014B18687047C0468C
:100B500000000020F0B5036885B00500DB0328D550
:100B600080220021374C5205E3690091134208D1DD
:100B7000E3691343E361E36913400393039B012398
:100B800000938027304E7F0033683B4226D0C0223E
:100B9000236A920013402D4E32D1236A1E406B68A7
:100BA0001E43009B2662012B03D1E369284A1340B0
:100BB000E3612A68D30706D5032022490B6B8343E0
:100BC000A86803430B630020930617D510211D4A24
:100BD000136B8B43E9680B4313630FE033683B43AC
:100BE0003360FFF747FB019033683B42CFD1FFF7FB
:100BF00041FB019BC01A6428F6D9032005B0F0BD63
:100C000069680A409342C8D08023226A206A110092
:100C10005B0203432362236A0E4831400340236290
:100C20002162D307B9D5FFF725FB07000222236A0B
:100C30001342B2D1FFF71EFB074BC01B9842F5D9F8
:100C4000DBE7C0460010024000700040FFFCFFFFE1
:100C5000FFFFFFEFFFFFFEFF8813000070477047A4
:100C60007047704770470222036810B51969040085
:100C700011420ED0D96811420BD0053A1A619B6916
:100C8000043202779B0700D179E0FFF7E9FF0023E8
:100C90002377042223681969114210D0D9681142C0
:100CA0000DD0093A1A61073222779A69C0239B0056
:100CB00020001A4269D0FFF7D3FF002323770822D0
:100CC0002368196911420ED0D96811420BD0113A2C
:100CD0001A61DB690D32227720009B075BD0FFF79A
:100CE000BFFF00232377102223681969114210D017
:100CF000D96811420DD0213A1A6119322277DA6986
:100D0000C0239B0020001A424BD0FFF7A9FF00230D
:100D10002377012223681969114207D0D96811424B
:100D200004D0033A1A612000FFF798FF802223685D
:100D30001969114208D0D968114205D0023AFF3A28
:100D40001A61200000F07AF94022236819691142E3
:100D500007D0D968114204D0813A1A612000FFF708
:100D600081FF202223681969114207D0D9681142F6
:100D700004D0413A1A61200000F05FF910BDFFF77E
:100D80006EFF2000FFF76DFF81E7FFF768FF20008F
:100D9000FFF767FF91E7FFF762FF2000FFF761FFB2
:100DA0009FE7FFF75CFF2000FFF75BFFAFE7000066
:100DB000194A10B50368904202D0184CA04208D1DD
:100DC0007024A3434C68234390420BD0134CA042A1
:100DD00008D0134CA04205D0124CA04202D0124CB5
:100DE000A04203D1114C2340CC6823438024A34369
:100DF0004C69234303608B68C3620B688362904233
:100E000005D0084B984202D0074B984201D10B699C
:100E100003630123436110BD002C01400004004026
:100E2000002000400044014000480140FFFCFFFF5B
:100E300070B504000120002C14D025003D352B781E
:100E4000DBB2002B05D122003C321370200000F0F1
:100E500025FA022320682B70211DFFF7A9FF01232B
:100E600000202B7070BD0000F8B506000C000120BA
:100E7000002E3DD035003D352B78DBB2002B05D15F
:100E800032003C321370300000F024FA31000223AB
:100E9000072201C92B70836893438360FFF788FFA3
:100EA00032682368916896691943124BA7681E40FF
:100EB000A369106A1B023B4333430F4E27691E4050
:100EC000E3693F011B023B43E7683B43276A3F035B
:100ED0003B433343AA26B0430600606964680001BF
:100EE00020439160304393610123106200202B70F6
:100EF000F8BDC046FCFCFFFF0303FFFF30B584686C
:100F0000034D0A431B022C4013432343836030BD2F
:100F1000FF00FFFF702270B50724006883689343C9
:100F20004A681343A3430C6823438360502A1CD0B0
:100F300002D8402A0AD070BD602A28D0702AFAD17F
:100F40000B698A68C968FFF7D9FFF4E70122046AD0
:100F5000036A934303628369EF3293431A000B6978
:100F60001B01134383610462E5E701258A680B696D
:100F7000016A046A1B01AC4304628469EF35AC4327
:100F800023430A24A1430A4383610262D3E7102466
:100F90008B680A69016A074DA143016284691203E3
:100FA0002C402243A024016A1B01A1430B43826110
:100FB0000362C0E7FF0FFFFFF8B505003C352B7853
:100FC00004000220012B13D0260001273D362F708C
:100FD00030702000FFF79EFF402100202368DA6870
:100FE0008A43DA60DA6803490A40DA6037702870A9
:100FF000F8BDC046FFBFFFFF30B504003C34227887
:1010000003000220012A17D01D001B683D352870FF
:101010005A686E3082435A605A68086849680243C9
:1010200080205A609A6882439A609A6800200A4336
:101030009A6001232B70207030BD7047704710B547
:10104000102494B03022002108A800F01AFA2200DF
:101050000021684600F015FA2200002104A800F0E3
:1010600010FA02230C9408930024013B08A80B9368
:10107000FFF7C0FA07232100684600930194029409
:101080000394FFF7CBFC202304A804930794FFF7F5
:1010900061FD14B010BD0000F0B58DB0FFF7D2F8BF
:1010A000FFF7CDFF1422002103A800F0EAF9802009
:1010B0004A4A800251690024014351615369112158
:1010C0000340902000220093C005009BFFF7ECF93D
:1010D0009020112303A9C00503930493059406945B
:1010E000FFF732F9902020230126082703A9C00525
:1010F000039304940596FFF727F92100142203A80F
:1011000000F0BFF93A00210001A800F0BAF9344D0F
:10111000344B28002B60FA239B00AC60EB602C6101
:101120006C61AC616F60FFF783FE042303A92800A4
:1011300003930494FFF740FF01A92800019402944F
:10114000FFF75AFF284D294B28002B60284BAC6035
:101150006B602C616C61AC61EC612C62EE60FFF73E
:10116000A9F921002800FFF7FBF921002800FFF76B
:101170001DFA2100242203A800F083F93A0021007F
:1011800001A800F07EF91B4D1B4B03A92B601B4BE4
:1011900028006C60AC60EB602C61AC610396059636
:1011A0000996FFF761FE280001A990250194029499
:1011B000FFF722FFF534ED05FF340122102128004E
:1011C000FFF772F92000FFF75BF8280000221021DA
:1011D000FFF76AF92000FFF753F8EEE7001002402E
:1011E000B0000020002C01402400002000540040EA
:1011F0000B0200007000002000040040FFFF000010
:1012000001200A4B82B099690143996180219A6952
:10121000490502400092009ADA690A43DA61DB6903
:101220000B400193019B02B07047C0460010024082
:1012300010B5040088B01422002103A800F021F9A1
:10124000144B22689A4222D18021134C8902626990
:1012500090200A4362616369C0050B400193019BC2
:10126000C023DB00039312230493113B0593023345
:10127000069303A901330793FFF766F88021E2691B
:1012800089030A43E261E3690B400293029B08B0C1
:1012900010BDC046005400400010024007B50B4B83
:1012A00002689A4211D18020094A000191690143E4
:1012B000916193690022034001930D201100019B6D
:1012C000FEF7EEFF0D20FFF71BF807BD002C0140D5
:1012D0000010024010B5040088B01422002103A8B9
:1012E00000F0CFF8154B22689A4224D102228020C8
:1012F000134B8002D9691143D961D9691140019119
:1013000001995969014359615B6903A9034002933B
:10131000029B9020C023C0050393BF3B049205931A
:101320000793FFF711F8002210201100FEF7B8FF15
:101330001020FEF7E5FF08B010BDC04600040040D5
:10134000001002407047FEE77047704710B5FEF787
:1013500089FF10BD10B50248FFF785FC10BDC046DF
:10136000B000002010B50248FFF77DFC10BDC0465C
:10137000700000200121114B11481A680A431A60BD
:101380005A6802405A601A680E4802401A601A6889
:101390000D4802401A605A680C4802400F205A60FB
:1013A000DA6A8243DA621A6B094802401A635A6B9E
:1013B0008A435A6300229A607047C0460010024078
:1013C0000CB8FF08FFFFF6FEFFFFFBFFFFFFC0FFAB
:1013D000ECFEFFFF0D4885460D480E490E4A0023DE
:1013E00002E0D458C4500433C4188C42F9D30B4AD9
:1013F0000B4C002301E013600432A242FBD3FFF741
:10140000B9FF00F011F8FFF747FEFEE700100020DB
:101410000000002004000020E41400080400002064
:10142000F0000020FEE7000070B500260C4D0D4CCA
:10143000641BA410A64209D1002600F02BF80A4D27
:101440000A4C641BA410A64205D170BDB300EB5832
:1014500098470136EEE7B300EB5898470136F2E7BC
:10146000DC140008DC140008DC140008E014000898
:10147000002310B59A4200D110BDCC5CC454013396
:10148000F8E703008218934200D1704719700133C6
:10149000F9E70000F8B5C046F8BC08BC9E467047A6
:0C14A000F8B5C046F8BC08BC9E4670477A
:1014AC0002030405060708090A0B0C0D0E0F101099
:1014BC000102030405060708090A0B0C0D0E0F1098
:1014CC0000000000000000000102030406070809E8
:0414DC00E90000081B
:0414E000C10000083F
:0414E40000127A0078
:04000005080013D507
:00000001FF
