:020000040800F2
:10000000001000205D280008451A0008471A000863
:1000100000000000000000000000000000000000E0
:10002000000000000000000000000000491A000865
:1000300000000000000000004B1A00084D1A0008E4
:10004000AD28000800000000AD280008AD28000819
:10005000AD280008AD280008AD280008AD2800082C
:1000600000000000AD280008AD280008AD280008F9
:10007000AD280008551A0008AD280008000000004F
:10008000AD2800080000000000000000AD280008B6
:1000900000000000AD280008AD280008AD280008C9
:1000A00000000000AD28000800000000AD28000896
:1000B0000000000000000000000000000000000040
:1000C00010B5064C2378002B07D1054B002B02D02E
:1000D000044800E000BF0123237010BD040000208D
:1000E000000000001C290008044B10B5002B03D0B1
:1000F0000349044800E000BF10BDC04600000000F6
:10010000080000201C29000802B471464908490073
:10011000095C49008E4402BC7047C0460022430877
:100120008B4274D303098B425FD3030A8B4244D3BF
:10013000030B8B4228D3030C8B420DD3FF22090201
:1001400012BA030C8B4202D31212090265D0030BC0
:100150008B4219D300E0090AC30B8B4201D3CB03B6
:10016000C01A5241830B8B4201D38B03C01A5241F8
:10017000430B8B4201D34B03C01A5241030B8B42FA
:1001800001D30B03C01A5241C30A8B4201D3CB02E5
:10019000C01A5241830A8B4201D38B02C01A5241CA
:1001A000430A8B4201D34B02C01A5241030A8B42CD
:1001B00001D30B02C01A5241CDD2C3098B4201D3E5
:1001C000CB01C01A524183098B4201D38B01C01A63
:1001D000524143098B4201D34B01C01A52410309DA
:1001E0008B4201D30B01C01A5241C3088B4201D389
:1001F000CB00C01A524183088B4201D38B00C01A36
:10020000524143088B4201D34B00C01A5241411A5C
:1002100000D20146524110467047FFE701B5002069
:1002200000F006F802BDC0460029F7D076E7704717
:100230007047C04610B5040000F006FEFA218900A0
:10024000FFF76CFF00F070F801200022210040420F
:1002500000F030F8002010BD1023064A10B51168D8
:1002600000200B431360FFF7E5FF01F04FFB002078
:1002700010BDC04600200240024A136801331360DB
:100280007047C04650010020014B18687047C046B7
:100290005001002037B50190FFF7F6FF019C0500E3
:1002A000631C5A1E9341E418FFF7EEFF401BA04267
:1002B000FAD337BD70B58901002814DA0F23C0B214
:1002C0000340083B114A9B089B009B1803221040E7
:1002D0009040FC321500114085408140DC69AC4300
:1002E0002143D96170BD032583082840A840FC350F
:1002F0002E00074A9B009B18C0228640294081405F
:1003000092009C58B44321439950EBE700ED00E084
:1003100000E100E01F2318401E3B8340014A1360A8
:100320007047C04600E100E0094A431E01209342A5
:100330000DD8C021074A08485360036A09061B020A
:100340001B0A0B4303620020072390601360704771
:10035000FFFFFF0010E000E000ED00E0F0B50B68EB
:1003600087B0029300230191029ADA4001D107B0CD
:10037000F0BD01229A4003920399029A0A4000922A
:1003800000D18CE0019A1021526816008E43022E93
:100390000ED107251D40AD000139A940DC08A4009D
:1003A0000419276A8F4301990969A9400F432762FD
:1003B00003245F00BC40E4430568013E2540AC4691
:1003C00003251540BD4061460D430560012E0FD841
:1003D00001998668CD682640BD40354385604668F2
:1003E000039915098E4301210D409D403543456019
:1003F000C56801992C408D688021BD4049052C437A
:10040000C4600A424BD00121264C0326A5691E4038
:100410000D43A561A4699D080C400594059C0F241B
:100420002149AD00B6006D18B4409021AF68C905F0
:10043000A743002488420CD01C490134884208D0CC
:100440001B490134884204D01A490334884200D140
:10045000023CB44000993C430E00AC60164CCD43C6
:1004600027683E43D10301D43E002E4026606768D2
:10047000009E3E43910301D43E002E406660A76873
:10048000009E3E43D10201D43E002E40A660E668A5
:10049000009F3743920201D42E403700E7600133BA
:1004A00062E7C0460010024000000140000400481E
:1004B00000080048000C004800040140002A01D058
:1004C000816170478162FCE703689A69920701D5F0
:1004D00000229A6201229969114202D199690A4364
:1004E0009A61704730B504680648656889052840F8
:1004F000039D890D2B43194312040A430243626092
:1005000030BDC046009800FCF8B504000E0017008E
:100510001D002268936933409B1B59424B41BB42EB
:1005200001D000200EE06B1CF4D0002D0BD1230075
:10053000202241331A70220000230320423240342B
:1005400013702370F8BDFFF79FFE069BC01A85420B
:10055000DFD2ECE7F8B503680400986910230E00B9
:10056000170018402025002815D1F8BD721C13D0A3
:10057000002E0BD12300202241331A7022000023C9
:1005800042324034137003202370EEE7FFF77CFE05
:10059000C01B8642EED323689A692A42E6D0102215
:1005A0002000DA61DD61FFF78FFF22680849536898
:1005B00001200B4053600423636423002200413375
:1005C0001D7000234232403413702370CDE7C046C3
:1005D00000E800FEF8B504000D00160002272368AD
:1005E0009B693B4201D0002018E032002900200026
:1005F000FFF7B0FF002818D16B1CF0D0002D0ED1F2
:100600002022636C032013436364230041331A7078
:10061000220000234232403413702370F8BDFFF7EC
:1006200033FE801B8542DAD2EAE70120F6E7F8B50F
:1006300004000D001600202723689B693B4201D06F
:10064000002016E0320029002000FFF783FF002879
:1006500016D1002D0ED12022636C03201343636456
:10066000230041331A7022000023423240341370B9
:100670002370F8BDFFF708FE801B8542DCD2EAE755
:100680000120F6E770B504000120002C3FD02500C2
:1006900041352B78DBB2002B05D12200403213709C
:1006A000200001F04BF9242301212B702368E0681E
:1006B0001A68A6688A431A6061681A4A0A401A6171
:1006C0009968194A11409960012821D180210902B5
:1006D000314399605868154901435960D968002031
:1006E0000A40DA60616922690A43A16909020A4382
:1006F000DA60216AE2690A431A60012219680A4332
:100700001A60202360642B7020634234207070BD17
:1007100084210902314399600228DBD1802109013B
:100720005960D7E7FFFFFFF0FF7FFFFF0080000267
:10073000F0B5050087B003910492059341352B78FD
:1007400004000220202B57D1230040331A78012ABD
:1007500052D001261E70FFF797FD80210700009000
:100760001923320009022000FFF7CEFE002842D1F3
:1007700021232B70113BAD192B70049B60646362C5
:100780006B469B8A606363858023628D9B01FF2A91
:1007900021D9FF222285009380235B040399200046
:1007A000FFF7A0FEFF26638D3A000C992000002B76
:1007B00019D1FFF73CFF002819D120212368274ECB
:1007C000D9615A6832405A6023004034413319706D
:1007D0002870207010E0628D92B2228500938023F1
:1007E000D2B29B04DAE7FFF7F5FE002806D0636C6F
:1007F0000120042B00D0032007B0F0BD636A2268FB
:10080000591C61621B789362638D228D013B013A12
:100810009BB292B263852285002AC4D1638D002BDE
:10082000C1D000970C9B80212000FFF76DFE0028AF
:10083000E1D1638DFF2B09D98023FF2226855B043C
:10084000009003992000FFF74DFEACE78023628DF6
:100850009B0492B22285D2B20090F2E700E800FE3B
:10086000F0B50400413422780300D2B20220202ADD
:1008700018D11D0040352E78012E13D01B68223070
:1008800020701E68233886431E601E68064F3E4057
:100890001E601E6831431960196808431860002003
:1008A00022702870F0BDC046FFEFFFFFF0B50500D5
:1008B00041352A780300D2B20220202A17D11C0029
:1008C00040342678012E12D01B68223028701E6812
:1008D000233886431E601E68054F09023E4031439F
:1008E000196019680843186000202A702070F0BD54
:1008F000FFF0FFFFF0B5036885B00500DB072FD4DC
:100900002B689B0700D581E02B681B0700D5BCE056
:100910002B685B0700D5DFE02B68DB061AD56A6918
:10092000B54C0423012A00D04BE1616B02260B4336
:100930006363636B1A436263FFF7A6FC0700636B94
:10094000334200D136E1F821626BAB698A43DB00A8
:1009500013436363296A002900D059E1002013E0A2
:100960000C21A54C62680A40042A06D063680B403B
:10097000082B0BD16368DB0308D523689B03BFD525
:100980006B68002BBCD1012005B0F0BD6B68012B5A
:1009900013D1802322685B0213432360FFF774FCAA
:1009A00080260700B60223683342A9D1FFF76CFC0A
:1009B000C01B6428F7D90320E6E7002B16D1236873
:1009C0008E4A80261340236023688D4AB602134066
:1009D0002360FFF759FC07002368334200D18FE7FB
:1009E000FFF752FCC01B6428F6D9E4E7052B05D1BC
:1009F00080232268DB0213432360CAE723687F4A0F
:100A00001340236023687E4A1340C6E70C227A4CC9
:100A10006368134206D063681340082B10D16368E3
:100A2000DB030DD423689B0702D5EB68012BAAD109
:100A3000F82122682B698A43DB001343236063E7B4
:100A4000EA680123002A0FD022680226134323609C
:100A5000FFF71AFC070023683342E9D1FFF714FCC3
:100A6000C01B0228F7D9A6E7226802269A43226013
:100A7000FFF70AFC07002368334200D144E7FFF781
:100A800003FCC01B0228F6D995E7EA6901235A4CFA
:100A9000002A10D0626A022613436362FFF7F4FB58
:100AA0000700636A334200D032E7FFF7EDFBC01B5B
:100AB0000228F6D97FE7626A02269A436262FFF74C
:100AC000E3FB0700636A334200D121E7FFF7DCFB59
:100AD000C01B0228F6D96EE780220021464C520541
:100AE000E3690091134208D1E3691343E361E369C9
:100AF00013400393039B012300938027414E7F0003
:100B000033683B4206D0AB68012B13D1226A1343F2
:100B1000236230E033683B433360FFF7B5FB01905D
:100B200033683B42EFD1FFF7AFFB019BC01A64284B
:100B3000F6D940E70122002B14D1236A0227934300
:100B40002362236A033293432362FFF79DFB06006F
:100B5000236A3B4225D0FFF797FB2B4B801B984223
:100B6000F6D928E7052B0BD1216A013B0B43236201
:100B7000236A1A432262FFF787FB022706000DE073
:100B8000236A934304222362236A9343C0E7FFF757
:100B90007BFB1D4B801B984200D90CE7236A3B422C
:100BA000F5D0009B012B00D0B6E6E369174A13404D
:100BB000E361B1E6FFF768FBC01B022800D8BEE680
:100BC000F9E6053203D1626B9A436263BBE6626B5E
:100BD0000226134301226363636B93436363FFF74E
:100BE00053FB0700636B334200D1B3E6FFF74CFBC6
:100BF000C01B0228F6D9DEE600100240FFFFFEFF10
:100C0000FFFFFBFF0070004088130000FFFFFFEFB5
:100C10000C22264C012063681340082B00D1B3E658
:100C20002368234A1340236002292FD1FFF72CFBAE
:100C300080260700B6042368334221D10F22E36ADD
:100C40009343EA6A1343E362696AAB6A62680B43DF
:100C5000184980250A4013436360802322685B049F
:100C600013432360FFF710FB0600AD0423682B42FB
:100C700000D073E6FFF708FB801B0228F6D99AE63E
:100C8000FFF702FBC01B0228D5D994E6FFF7FCFA58
:100C900080250600AD0423682B4200D15EE6FFF7F5
:100CA000F3FA801B0228F6D985E6C0460010024000
:100CB000FFFFFFFEFFFFC2FF70B5144C88B010228B
:100CC0002100684601F018FE210004AD1022103109
:100CD000280001F011FE0C220D4E73681A40082AFC
:100CE00011D10F206A46990C0140545CF26A02400F
:100CF000A95CDB0305D50748FFF710FA604308B08D
:100D000070BD0548FAE70348F9E7C04634290008F2
:100D10000010024000127A0000093D00F7B50122E0
:100D2000434C060023680F0013408B421CD33268EB
:100D3000930723D4D30729D4012322681A4097426A
:100D400067D333683B4C5B076AD4FFF7B5FF636832
:100D5000394A1B061B0FD35CD840384B1860002063
:100D6000FFF768FA002008E0236893430B432360F1
:100D7000236813409942DAD00120FEBDF0202D49AE
:100D80004B688343B06803434B60D3E7294D7268D7
:100D90002B68012A1AD19B03EED503216B688B4384
:100DA00013436B60FFF770FA73680190012B15D144
:100DB0000C226B681340042BBED0FFF765FA019B31
:100DC000C01A1F4B9842F3D90320D6E7022A02D15A
:100DD0009B01E2D4D0E79B07DFD4CDE7022B12D0F2
:100DE0000C226B681342A7D0FFF74EFA019BC01A82
:100DF000134B9842F4D9E7E7FFF746FA019BC01A74
:100E00000F4B9842E0D80C226B681340082BF3D1AB
:100E100092E722689A43226022681A42ACD190E796
:100E20006368084A1340F268134363608DE7C04665
:100E30000020024000100240672900080000002046
:100E400088130000FFF8FFFF014B18687047C04689
:100E500000000020044B054A5B685B055B0FD35C18
:100E6000034A1068D84070470010024077290008F4
:100E700000000020F0B5036885B00500DB0328D52D
:100E800080220021374C5205E3690091134208D1BA
:100E9000E3691343E361E36913400393039B012375
:100EA00000938027304E7F0033683B4226D0C0221B
:100EB000236A920013402D4E32D1236A1E406B6884
:100EC0001E43009B2662012B03D1E369284A13408D
:100ED000E3612A68D30706D5032022490B6B8343BD
:100EE000A86803430B630020930617D510211D4A01
:100EF000136B8B43E9680B4313630FE033683B4389
:100F00003360FFF7C1F9019033683B42CFD1FFF75F
:100F1000BBF9019BC01A6428F6D9032005B0F0BDC7
:100F200069680A409342C8D08023226A206A11006F
:100F30005B0203432362236A0E483140034023626D
:100F40002162D307B9D5FFF79FF907000222236A70
:100F50001342B2D1FFF798F9074BC01B9842F5D95D
:100F6000DBE7C0460010024000700040FFFCFFFFBE
:100F7000FFFFFFEFFFFFFEFF881300007047704781
:100F80007047704770470222036810B51969040062
:100F900011420ED0D96811420BD0053A1A619B69F3
:100FA000043202779B0700D179E0FFF7E9FF0023C5
:100FB0002377042223681969114210D0D96811429D
:100FC0000DD0093A1A61073222779A69C0239B0033
:100FD00020001A4269D0FFF7D3FF002323770822AD
:100FE0002368196911420ED0D96811420BD0113A09
:100FF0001A61DB690D32227720009B075BD0FFF777
:10100000BFFF00232377102223681969114210D0F3
:10101000D96811420DD0213A1A6119322277DA6962
:10102000C0239B0020001A424BD0FFF7A9FF0023EA
:101030002377012223681969114207D0D968114228
:1010400004D0033A1A612000FFF798FF802223683A
:101050001969114208D0D968114205D0023AFF3A05
:101060001A61200000F030F940222368196911420A
:1010700007D0D968114204D0813A1A612000FFF7E5
:1010800081FF202223681969114207D0D9681142D3
:1010900004D0413A1A61200000F015F910BDFFF7A5
:1010A0006EFF2000FFF76DFF81E7FFF768FF20006C
:1010B000FFF767FF91E7FFF762FF2000FFF761FF8F
:1010C0009FE7FFF75CFF2000FFF75BFFAFE7000043
:1010D000194A10B50368904202D0184CA04208D1BA
:1010E0007024A3434C68234390420BD0134CA0427E
:1010F00008D0134CA04205D0124CA04202D0124C92
:10110000A04203D1114C2340CC6823438024A34345
:101110004C69234303608B68C3620B68836290420F
:1011200005D0084B984202D0074B984201D10B6979
:1011300003630123436110BD002C01400004004003
:10114000002000400044014000480140FFFCFFFF38
:1011500070B504000120002C14D025003D352B78FB
:10116000DBB2002B05D122003C321370200000F0CE
:101170001BFC022320682B70211DFFF7A9FF012310
:1011800000202B7070BD000030B58468034D0A4309
:101190001B022C4013432343836030BDFF00FFFF3D
:1011A000702270B507240068836893434A6813432C
:1011B000A3430C6823438360502A1CD002D8402AE2
:1011C0000AD070BD602A28D0702AFAD10B698A68CB
:1011D000C968FFF7D9FFF4E70122046A036A934361
:1011E00003628369EF3293431A000B691B011343B7
:1011F00083610462E5E701258A680B69016A046A74
:101200001B01AC4304628469EF35AC4323430A24D9
:10121000A1430A4383610262D3E710248B680A6901
:10122000016A074DA1430162846912032C402243E5
:10123000A024016A1B01A1430B4382610362C0E742
:10124000FF0FFFFFF8B505003C352B7804000220A6
:10125000012B13D0260001273D362F70307020005F
:10126000FFF79EFF402100202368DA688A43DA6096
:10127000DA6803490A40DA6037702870F8BDC04662
:10128000FFBFFFFF30B504003C342278030002208A
:10129000012A17D01D001B683D3528705A686E3032
:1012A00082435A605A6808684968024380205A603D
:1012B0009A6882439A609A6800200A439A600123E0
:1012C0002B70207030BD70477047000070B504006F
:1012D0000568C2698368006929680343606903433C
:1012E0003548134301400B432B606B683349206A38
:1012F0000B40E1680B436B60A369A9680343304866
:1013000001400B430321AB602E4B1B6B0B402E495E
:10131000C85C80231B029A422CD1082827D8FEF7EC
:10132000F3FE05260B261E2626262100FFF792FD3A
:10133000636840005B0802E063685808234BC018EC
:101340006168FEF7EBFE83B200200F221900914383
:101350000A001B0721685B0F1343CB6070BDFFF7CA
:10136000ABFCE5E76368580880235B02E7E70120F0
:101370000023EAE708281DD8FEF7C6FE051C0A1C54
:10138000141C1C1C1700FFF765FD61684B0802E088
:1013900061680F4B4808C018FEF7C0FE80B2E860D5
:1013A0000020DBE7FFF788FCEFE7802361681B0282
:1013B0004808F0E70120D1E7F369FFFFFFCFFFFF07
:1013C000FFF4FFFF00100240562900080024F4003B
:1013D00000127A00436A30B5DA0706D50168284C56
:1013E0004A682240846A22434A609A0706D5016807
:1013F000244C4A682240C46A22434A605A0706D5F0
:101400000168214C4A682240046B22434A601A0753
:1014100006D501681D4C4A682240446B22434A604D
:10142000DA0606D501681A4C8A682240846B22438A
:101430008A609A0606D50168164C8A682240C46BF9
:1014400022438A605A0610D50168134D4A68046C1D
:101450002A4022434A6080225203944205D14A68BE
:101460000E4C2240446C22434A601B0606D502689B
:101470000B4953680B40816C0B43536030BDC04631
:10148000FFFFFDFFFFFFFEFFFFFFFBFFFF7FFFFFF3
:10149000FFEFFFFFFFDFFFFFFFFFEFFFFFFF9FFFFC
:1014A000FFFFF7FF70B5041E01D1012070BD0500DC
:1014B00069352B78DBB2002B04D10200683213703F
:1014C00000F08EFA2423012122682B70136820007B
:1014D0008B431360FFF7FAFE0128E6D0636A002B06
:1014E00002D02000FFF776FF23680B495A680020DE
:1014F0000A4008215A609A688A439A600122196852
:101500000A431A6022002023E0666A3268342B7096
:1015100013702070CAE7C046FFF7FFFFF8B504005C
:101520000E0015001F002268D36933409B1B5942EF
:101530004B41AB4201D0002018E0069B0133F3D0B1
:10154000069B002B13D123680C491A6803200A401C
:101550001A609A68A331FF318A439A6022002023DF
:10156000693213705370002368342370F8BDFEF79E
:101570008BFE069BC01B8342D5D2E4E75FFEFFFFD4
:10158000F0B5070085B0039369373B7804000D0080
:1015900016000220202B46D10138002943D0002A12
:1015A00041D08023A2685B019A4204D12369002BB9
:1015B00001D1014237D1230068331A780220012A71
:1015C00031D001221A700023E36621333B70FEF70D
:1015D0005BFE230050331E805E80802602907601E1
:1015E000210052310A8892B2002A0DD1039B40217A
:1015F00000932000029BFFF791FF002812D12023C7
:1016000068343B7020700EE00B880022013B9BB2D7
:101610000B80039B802100932000029BFFF77EFF3D
:10162000002802D0032005B0F0BDA3682268B342B1
:1016300008D12369002B05D12B880235DB05DB0D92
:101640001385CDE72B7801351385C9E710B5282917
:1016500003D0292905D0012010BD0120FEF71AFE74
:10166000F9E71000FAE70000F0B50E0087B005AD0D
:1016700007001400214902222800039301F03CF9DD
:10168000300014380C2837D8FEF73EFD14363607E4
:101690001E2236363636363614000020012618490A
:1016A000039A0B78174DE418E4B2A34205D1002841
:1016B00000D00B70012007B0F0BD10785F1CE8541B
:1016C00001323000FBB2F0E700220D4B1A70F1E757
:1016D00032240B4B0B4A1B78782100940A48FFF701
:1016E00027F805376870FB7F02222B702900230042
:1016F0000648FFF745FFDDE70020DCE75429000836
:10170000200000202100002054010020A001002022
:1017100010B5102494B03022002108A801F0F5F88B
:1017200022000021684601F0F0F82200002104A800
:1017300001F0EBF802230C9408930024013B08A865
:101740000B93FFF7D7F80723210068460093019415
:1017500002940394FFF7E2FA212304A80493069469
:101760000794FFF787FB14B010BD0000F0B589B0F7
:10177000FEF772FDFFF7CCFF1422002103A801F051
:10178000C4F88020524A800251690024014351610B
:10179000536911210340902000220093C005009B53
:1017A000FEF78CFE9020112303A9C0050393049338
:1017B00005940694FEF7D2FD9020202301260827E9
:1017C00003A9C005039304940596FEF7C7FD1422F0
:1017D000210003A801F099F83A00210001A801F0C6
:1017E00094F83C4D3C4B28002B60FA239B00EB60A7
:1017F0006F60AC602C616C61AC61FFF7A9FC0423E5
:1018000003A9280003930494FFF71CFD01A92800F5
:1018100001940294FFF736FD304D314B28002B60C8
:10182000304BAC606B60EE602C616C61AC61EC6164
:101830002C62FEF727FF21002800FFF711F8210096
:101840002800FFF733F82848284B84600360E12321
:101850005B0243600C23C460436104618461C46122
:1018600004624462FFF71EFE214D224B224A2349A7
:10187000280000F0A3F9280000F0AEFF28002100A6
:1018800000F0B1FF280000F062F91D49280000F0C7
:1018900033FC1C4B14220521280000F0EDFB28002E
:1018A00000F063F90028F0D19024E4050122102112
:1018B0002000FEF703FE1448FEF7ECFC2000002297
:1018C0001021FEF7FBFD1048FEF7E4FCEEE7C046F2
:1018D0000010024010020020002C014054010020A2
:1018E000005400400B020000A0010020003801401D
:1018F000440000204D16000869160008D031000889
:101900007F2900085A290008DC05000001200A4B45
:1019100082B099690143996180219A694905024021
:101920000092009ADA690A43DA61DB690B4001939D
:10193000019B02B07047C0460010024010B5040081
:1019400088B01422002103A800F0DFFF144B2268A6
:101950009A4222D18021134C8902626990200A4365
:1019600062616369C0050B400193019BC023DB00EA
:10197000039312230493113B05930233069303A9A7
:1019800001330793FEF7EAFC8021E26989030A43E9
:10199000E261E3690B400293029B08B010BDC046B0
:1019A000005400400010024007B50B4B02689A42F9
:1019B00011D18020094A0001916901439161936925
:1019C0000022034001930D201100019BFEF772FCE1
:1019D0000D20FEF79FFC07BD002C014000100240C7
:1019E00010B5040088B01422002103A800F08DFF78
:1019F000124B22689A421FD18020114BC001996975
:101A00000143996180219A69890202400192019AF9
:101A10005A6990200A435A615B69C0050B400293E2
:101A2000029B0C2303930A3B04930133069303A9FF
:101A3000023B0793FEF792FC08B010BD003801404E
:101A4000001002407047FEE77047704710B5FEF780
:101A500013FC10BD10B50248FFF795FA10BDC04643
:101A6000100200200121114B11481A680A431A6024
:101A70005A6802405A601A680E4802401A601A6892
:101A80000D4802401A605A680C4802400F205A6004
:101A9000DA6A8243DA621A6B094802401A635A6BA7
:101AA0008A435A6300229A607047C0460010024081
:101AB0000CB8FF08FFFFF6FEFFFFFBFFFFFFC0FFB4
:101AC000ECFEFFFF0300F0B53C331B7885B00293BA
:101AD0000300050000263D331F7803685B7C0393F9
:101AE0002B68B0B21B7CF4B2D9004143A86B89B219
:101AF00041183A190091D2B20021280000F058FE96
:101B00000134029BE4B2A34205D90136BB19039A02
:101B1000DBB29A42E4D805B0F0BD10B503680021ED
:101B20001A7C03003C331B78806BDB005A4300F0C7
:101B3000ECFE10BD030010B504003D331970436B7B
:101B40001B689847636B20005B68984710BD0300D3
:101B500010B587331B780400002B01D0FFF7DDFFA1
:101B600000212000FFF7E6FF10BD70B50400FFF76D
:101B7000A9FF23003D331D78013B1B78ED18236836
:101B8000EDB25B7CAB4204D8200000F033FE0020B5
:101B900070BD230087331B78002B02D02000FFF795
:101BA000BCFF20002900FFF7C5FF0120F0E700007F
:101BB0000123037000487047CC0000207FB50F253B
:101BC0000E006D44009308491300084A040000F019
:101BD00035FE2800FFF7ECFF2A7801000096044B41
:101BE000200000F021FC7FBD2D2700089125000872
:101BF0005B220008411808784B780002C01880B2B8
:101C0000704720B505004018C0B2012B09D0A818B4
:101C1000C0B2002B05D0AA1AD0B2022B01D0681A8C
:101C2000C0B220BD20B5851AEDB2012B09D04518F0
:101C3000EDB2002B05D0411ACDB2022B01D0801895
:101C4000C5B2280020BD0020704770B50B780D008C
:101C500003704B78040043708B788370CB78C3702B
:101C60000B7903714B7943718B798371CB79C37194
:101C70000B7A03724B7A43728B7A8372CB7AC3727C
:101C80000B7B03734B7B43738B7B8373CB7BC37364
:101C90000B7C112103742800FFF7ACFF1321608235
:101CA0002800FFF7A7FF1521A0822800FFF7A2FF59
:101CB000E08270BD70B50468867A25787218354167
:101CC000D2B2EBB2072A0AD9631C036063780824F6
:101CD000A41BE4B2A340083A2B43DBB2D2B2827217
:101CE000012088400138184070BD70B50400002301
:101CF00058348165A372030005006C331978200005
:101D0000FFF7D8FF2B0020726D3319782000FFF702
:101D1000D1FF863560722B7823735A425341637327
:101D200070BD10B50C00FFF7C5FF0123013CE4B204
:101D3000A340C01A40B210BD0300F0B504000F006C
:101D40008DB00B9258339A790392DB790693250074
:101D500058352B7A039A9B1ADBB20493049A3B1CE6
:101D6000974201D96B461B7CDBB208936B792879CB
:101D70000C260A936B469E571B7E31005BB207937D
:101D8000AB7B079A0593FFF74DFF059B0990079AD8
:101D900031000A98FFF735FF0B9B0200002B16D08D
:101DA000297B230086331970059B09990093200035
:101DB000089B00F0BAF9049B9F420DD3FF1A069BC3
:101DC000FFB20133DBB2069300230393BFE7EB7A44
:101DD000002BF0D1697BE4E7039B5834FB18A37117
:101DE0006B461B7FE3710DB0F0BDF0B504008BB006
:101DF0000700FFF77AFF230061331B7858375BB287
:101E0000069323006E3319783800FFF78AFF23000A
:101E100008906F3319783800FFF783FF2300703381
:101E2000197805003800FFF77CFF08230990FB565E
:101E30000393002B5CDD6B461B7E089904935B19B2
:101E40005B425BB20793BB7B079A05933879FFF738
:101E5000E9FE059B3871079A089906000500787914
:101E6000FFF7CFFE059B020001007871032B63D8BA
:101E70001800FEF749F902404A57039B0498F518E9
:101E80008118EBB2C9B200912000310000F0CCF90A
:101E900000282DD023000022012558339A71DA71D1
:101EA00023006A3319783800FFF704FF23000390FA
:101EB0006B3319783800FFF7FDFE06000022039906
:101EC0002000FFF739FF310020002A00FFF734FF20
:101ED00029003800FFF7EEFE0028EFD1230007228B
:101EE00058339A5606998A42DADB1B7B8634237074
:101EF00009980BB0F0BD049B0398F61A0135111830
:101F00000136EBB2C9B2F6B2BDE70122039B0498D9
:101F1000D61AAE19AD18121A8A180131EBB2C9B22D
:101F2000D2B2F0E7039A049B8A1A9D19013201315B
:101F3000EBB2C9B2D2B2A6E701003300A3E7F8B50D
:101F4000046D0D001734FF2912D860290AD97C309E
:101F50000388E4186078002803D02378AB4205D1C9
:101F6000A01CF8BD4029F5D97A30F1E72418F1E733
:101F70007E30008802272418260000213000FFF759
:101F800039FE390024183000FFF734FE043685424C
:101F9000F3D82078637800021843E2D0854201D15B
:101FA000E01CDEE7A378E418F3E7F8B51F000300B0
:101FB0006633040018780E001500032808D8636DF6
:101FC000FEF7A2F802151A1E200098472D18EDB250
:101FD00023005C3339001E705D702000FFF7AFFFF7
:101FE000011E03D02000FFF700FFC0B2F8BD2000A3
:101FF0009847361AF6B2EBE7200098472D1AE6E725
:10200000200098473618F5E7F7B51F0006000C00CA
:10201000150000F035FA0023019373683978300019
:102020009847134A030090421FD0124A013790424A
:10203000F3D02A0021003000FFF7B7FF32006632EC
:1020400003001078032805D8FEF75EF802080B0D90
:10205000E418E4B2019AD318DBB2DDE7ED18EDB273
:10206000F8E7E41AF5E7ED1AF9E70198FEBDC04676
:10207000FFFF0000FEFF000010B5024C4460FFF7B8
:10208000C3FF10BD6D240008036D70B5002B1DD07B
:102090000300002605000124020075339E57823597
:1020A0002E701C57833214700C331B78002B0DD00C
:1020B000012B0CD1030077331B785BB29E4200DA10
:1020C0002B707823C3569C4200DD137070BD030053
:1020D000742172331B7841565BB25B189E4200DA62
:1020E0002B708C42F2DD1170F0E70000014B43656C
:1020F0007047C046471C0008036D10B504008B42B2
:1021000006D001656830FFF7A0FD2000FFF7BCFF97
:1021100010BD37B5050040352D7806AC2478521B2C
:102120000094D2B2046BA04737BDF7B505008035E7
:102130002D7808AC2478002D3FD0002B3DD0012B0A
:1021400004D9022C30D10131C91AC9B201252C4061
:102150000500002C32D147352D7895422DD8050049
:1021600048352D78954228D905000600CB1845350D
:102170004636DBB22D7836788B421CD28E4219D986
:10218000731EDBB29D4218D22F1C8D4200D20F1C51
:10219000F9B2351C9E4200D91D1C6B1A456B009488
:1021A000DBB2AC68A04708E0032CCFD10132D21AD1
:1021B000D2B2CBE729008E42E4D8F7BD45352D7861
:1021C0008D42FAD8050046352D788D42F5D90500A7
:1021D000D31847352E78DBB201352D78934211D2D2
:1021E00095420ED96B1EDBB29E42E6D2371C964258
:1021F00000D2171CFAB22E1C9D4200D91E1CB31A25
:10220000CCE732009542D8D9EEE710B504008A42F7
:1022100006D20120A34202D893429B41584210BDEE
:102220008342F9D80020FAE770B50D0001000400E0
:102230001E00483104AB47301B7809780078FFF75F
:10224000E4FF002808D0230045344633197820786D
:1022500033002A00FFF7D9FF70BDF7B508AC24782A
:10226000019407241440A44601246546AC400500AF
:1022700086352E78E4B20025012E02D82500012EE5
:1022800014D007270668BA43367C72435118826B14
:102290005118019A002A0BD10A78013B2A43624067
:1022A000DBB20A700131002BF6D1F7BD0024E8E75C
:1022B000020001263E3201920A78013B2A43624025
:1022C0000A70624601323A409446DBB2002A0CD1D1
:1022D000019A12788918020086321278012A02D8EF
:1022E0003500012A05D0340003E06D006400EDB232
:1022F000E4B2002BE0D1D8E7030070B53C331A7884
:102300000468D100D970237C191C1F2B00D91F2110
:102310000300C9B2C9003E3319700100013B1D78AA
:102320004031EB00DBB20B70617C56198E4201DD4F
:102330004A1BD2B20100D20041310B709B1802003F
:10234000423213700300F02243331A70A28AF02A3B
:1023500000D81A70E38A4430037070BD13B504AC22
:1023600024780094FFF7D5FE13BDF0B506000500F4
:102370000700040085B04C304A364B354937337876
:102380002A7839780390007800902000FFF74CFFFE
:1023900023008033002802D1187005B0F0BD01225F
:1023A0001A70230045333A781978914200D21A7096
:1023B0002300463332781978914200D91A702300ED
:1023C00047332A781978914200D21A70039B483417
:1023D0001B7822789A42E0D92370DEE703000022BE
:1023E000453310B51A700200433212785A70020059
:1023F000413212789A70020042321278DA70FFF796
:10240000B4FF10BD10B5FFF777FF10BD0200002329
:10241000493210B5137093700132FF33137093700B
:10242000436B5B68984710BD70B5040023632300BD
:1024300000253C33A16325651A705D7027331D703C
:10244000220022331D7001238632049813705370CA
:1024500003686063200098472000FFF7D7FF200043
:102460006634FFF743FE257070BD0000002902D0DE
:1024700088B20A2900D101487047C046FFFF00001A
:1024800000230830C377704710B5130004690A00B1
:102490001721A04710BD07B56B46DA1D1170012149
:1024A000FFF7F2FF0EBD002310B51A0004691821D2
:1024B000A04710BD002310B51A0004691921A047D8
:1024C00010BD70B5040016000D00FFF7ECFF4021B1
:1024D0002000FFF7E0FF33002A00172125692000C4
:1024E000A8472000FFF7E6FF70BD10B50A00C468DA
:1024F00000231521A04710BD10B50A00C4680023B1
:102500001621A04710BD10B51300C4680A0017219A
:10251000A04710BD002310B51A00C4681821A047B9
:1025200010BD002310B51A00C4681921A04710BDC2
:1025300073B505000C002178172918D002D8152989
:102540000CD273BD19291BD9FE29FAD16B466278CA
:1025500029212800DA7100F054F906E06B46627810
:102560002800DA71EE680023B0470234E3E76B46D7
:10257000DA1D6378012128001370FFF7C4FFF4E728
:10258000002328001A00EE680134B047D3E70000AA
:102590001439F8B5040015001E000020052919D8CB
:1025A0000800FDF7B1FD3703181E4448274E337865
:1025B000002B02D02000FFF77DFF2000FFF773FF04
:1025C00000212000FFF767FF29002000FFF763FFCD
:1025D00001203070F8BD11002000FFF75CFF0120E2
:1025E000F8E71A4F3B78002B02D02000FFF762FF7C
:1025F0003200182D06D829002000FFF762FF0023C3
:102600003B70ECE718212000183DFFF75AFFEDB2B0
:102610001836EDE7631DDA7FFF2A01D1873ADA77B2
:10262000276933002A0014212000B847D2E700228E
:10263000064B1A70D3E7054D2B78002B02D02000F3
:10264000FFF738FF00232B70C9E7C0464C0100207C
:102650000A39F8B5040016001F000800052959D8EA
:10266000FDF752FD030C58112332200000F071F8E1
:1026700029492000FFF75CFF0120F8BD2749002A07
:10268000F7D02749F5E7E51C002A07D125492000A6
:10269000FFF74EFF23689B7CEB77EDE72249200094
:1026A000FFF746FF2368DB7CF6E72000FFF732FFE9
:1026B00081212000FFF719FF31002000FFF71CFFE8
:1026C0002000FFF72EFFD7E72000FFF723FF7D79DB
:1026D000E31CD97FED006D181021EDB22B091943D1
:1026E0002000FFF702FF0F2120002940FFF7FDFE29
:1026F000B023B97920001943FFF7F7FE3979013E7D
:10270000C900C9B23A682000F6B2FFF7FCFE002EFD
:10271000F4D1D5E70020B0E7EA3100081F32000805
:1027200024320008DC310008E331000810B5092923
:1027300004D1044900F008F8012010BDFFF788FF1C
:10274000FBE7C0462C32000801608B7C0330C37766
:102750007047002370B51A00282145690400A84776
:102760000023E5681A0014212000A8472000012258
:102770004B2100F046F8236820001A79292100F047
:1027800040F8200000224B2100F03BF82368200095
:102790001A79292100F035F8200001224B2100F0A0
:1027A00030F8236829215A79200000F02AF870BDFA
:1027B00013B56C462371049B6171A2710093846808
:1027C0006B4601220F21A04716BD002310B51A0049
:1027D00084680921A04710BD002310B51A00846841
:1027E0000A21A04710BD10B50A00846800230B2100
:1027F000A04710BD002310B51A0084681021A0471F
:1028000010BD10B500234469A04710BD00207047DB
:102810000023094A03608260C26002614261021DB6
:10282000D377C21DD3770132D3778361421DFF3343
:102830002930D377037070470D280008F8B50400DD
:102840000F0016001D00FFF7E3FF069BA760E66080
:10285000256163612000FFF7B8FFF8BD0D4885468C
:102860000D480E490E4A002302E0D458C4500433E8
:10287000C4188C42F9D30B4A0B4C002301E01360BF
:102880000432A242FBD3FFF7EDF800F011F8FEF797
:102890006DFFFEE700100020000000200400002073
:1028A0004C3200080400002050020020FEE7000027
:1028B00070B500260C4D0D4C641BA410A64209D126
:1028C000002600F02BF80A4D0A4C641BA410A64207
:1028D00005D170BDB300EB5898470136EEE7B30061
:1028E000EB5898470136F2E74432000844320008BA
:1028F0004432000848320008002310B59A4200D143
:1029000010BDCC5CC4540133F8E703008218934235
:1029100000D1704719700133F9E70000F8B5C046DF
:10292000F8BC08BC9E467047F8B5C046F8BC08BC69
:042930009E46704708
:1029340002030405060708090A0B0C0D0E0F1010FC
:102944000102030405060708090A0B0C0D0E0F10FB
:1029540005020004080248656C6C6F20776F726C86
:1029640064200000000000000000000102030406CF
:1029740007080900000000010203045F00040305C6
:10298400050405061614FDFC0EFC0EFE028805D790
:102994000834200600602C012111C4253443E2E0F0
:1029A400C0424499C4418404002209A5644641827A
:1029B4001702231F8B616449424C424C42E660E299
:1029C4006046424C42E660E26046424C424C420859
:1029D40000242349A65B2930AC4622A224A224A4C5
:1029E40022C8E620E420C628A224A422A42242A6C7
:1029F4002C300800252CEEE17B65464A64224826EB
:102A0400444826244A26424A24DD8870CC988848C3
:102A140054884C90884C508C4C8C92A0A8A950009F
:102A24002623D0258C8B5644524652467242B478A3
:102A3400A6C64668822468A66A886A8AA6E620E44E
:102A44006604002708A2642EE16000281205A23360
:102A5400474464446444466F6664668404291105EB
:102A6400A2334148664666469F8C888CA8012A1288
:102A7400E7E0456524C94484C88844C448921100E9
:102A84002B0E4A215C4950A3830323418D002C0C57
:102A9400E4602B43E22062241B002D0865E034E14E
:102AA40041002E0B84202C43E2204202002F10C64A
:102AB400213C495190A22045418A8214013014C915
:102AC400255C676862444662C6BF99901199189A5A
:102AD40001310CC7295C4768A468FFC9013217C9D2
:102AE400255C87466462C66642666C6A6C6A4A4CB8
:102AF400D5C141013319C9255C87466462C6664263
:102B0400664C68526E42C6CD84C84C09003419C95B
:102B1400255C2F4E6C8A51C44CC848CC48CC44D058
:102B2400C481D4D854013517C9255CE320E224308C
:102B3400A14DCCDCD8848C9B09919912003618C91C
:102B4400255CA764858C8DC4D8C408C51A6F266417
:102B540026468466003712C9255CE141D994989CC5
:102B6400989CD8AAB18D003818C9255C674846429C
:102B74008AAAE842C4C824E4A88AAA468606003978
:102B84001AC9255C674864624662C69B89099289B2
:102B9400B109191B8991911A003A0F24253443E293
:102BA40020424CE2204202003B1084653343E22081
:102BB400424CE22062241B003C0C4A215C518C886C
:102BC40033420E053D0CC9A45CE1013DCCC10101B9
:102BD4003E0C4A215C419067449C09023F14C92180
:102BE40054A744E4C66642664CF71062546442003B
:102BF400402ACF2184EB6C4C463244A6444244091B
:102C0400898C08898C08858C88841A1109251322DB
:102C140022134492316362074100411ECE1D742F7A
:102C24005A76963262324430662E662C6AEA40281E
:102C34006C286E446E82AA004222CC2174E1606644
:102C4400866468646864686466E62068C9D4C4D429
:102C5400C4D4C4D4C4D0C4810C004318CC2174A9F6
:102C64002484C598C45821CB0D23E622C66268A4E7
:102C74006A004423CE2184E1606A88666C646C64D3
:102C84006E626E626E626E626E626E626C646C64C0
:102C940088E46008004523CB216CE1806268624AC5
:102CA4006226246226246244E8684468266826244E
:102CB400622C624A62E8E000461FCB216CE180622C
:102CC40068624A6226246226246244E868446826CC
:102CD400682668709D15004720CD217CA924868430
:102CE400644C644C623062306274D541D8C8D4C834
:102CF400D40C09554904004822CE2184A1A8626C51
:102D0400646C646C646C646CE4A0646C646C646C8B
:102D1400646C646C646CA2A800490BC5254CA16268
:102D240064FF8B024A15CA1D64AB6C6E9FC84C903D
:102D34004C904C088D880C11014B20CE2184A1A607
:102D4400644A68486A466C446E42D0F06E826C8471
:102D54006A866888668AA2C6004C11CA2164A16C7E
:102D64006E7F15311531243173604D33D1219CC1EF
:102D7400AC848CA68A26622862266426622664268F
:102D84006226642464266622642666226426866695
:102D9400266866266866642868A226A6004E25CEA4
:102DA400218481AA826A862A882AA828054D500887
:102DB40049500C4550505114511451D8CC9848598D
:102DC40008004F18CE2184C98C84666C646C62D070
:102DD4000F27C646C66648C88C00501ACC2174E139
:102DE40040688664886288628862886286E42068B3
:102DF4007287750051204E2283C98C84666C646C82
:102E040062D02F682646464466246628CA8C8527E5
:102E1400224B47005223CD2184E1806688646A6492
:102E24006A646A6468E6206A6668666886666866D4
:102E3400686668C26802005319CA2164872264C59F
:102E440090C4540499D595995559D5C94448090055
:102E54005413CB216CE1C064CD8CCC8CCC4CD0E031
:102E64007E57035522CE2184A1A8626C642E662E5F
:102E7400662E662E662E662E662E662E662E662EAE
:102E84006848CE0800561FCF1D74C1A8826C662EF8
:102E9400882A6C2A6C2A6E2670267222742276780E
:102EA4003A3C0E00572FD41D9CC1C2A4828668668A
:102EB400682A8886266C86266C86268C2282227056
:102EC40022642270226422908674687468362C38D6
:102ED4002C0C00581DCF218CC3A486688A466E44EE
:102EE400D09498B4D450844C686A88668CA2C80084
:102EF4005917CD217CC186824A662A88466A268C67
:102F040022B072740F6F005A1ACC216CE14158D967
:102F1400441845141DE1201DAB08B288B1B2838367
:102F2400005B0A04A633C144FF4F085C14C8214C5B
:102F3400414C4E4C4E4C4E4C4E4C4E4C4E4C005D07
:102F44000A04A2338144FF4F0C5E0F08A14D474C85
:102F54008A8846440B2122015F0849604BE1010144
:102F6400600985A43E4166910061142A215CE364F2
:102F74006642688C6662CDC4CCC4089301621ACCE4
:102F84001D6481722F886846A626A626A626A62634
:102F9400A6266846246A006310292154A764C4A89D
:102FA4006CAB8819191200641ACC216C8F72471407
:102FB400233314531353135313531353233344140A
:102FC4000465142A215C87686462C8E8E0406E2CBA
:102FD4006248A604006610C8213C874662574336FF
:102FE40053FBA80600671FEB215B5370C46864465B
:102FF4004846486664C848F220E820426A424C6267
:1030040048E606006819CC216C81722F6A4848860C
:1030140046864686468646864686264A0A690BC5FD
:10302400213463642DC97E516A10471633697B10BD
:10303400A2FD9185850809006B18CC216C81724F23
:103044004A668446C226C4AE2688466866282A0C88
:103054006C0AC521348164FF17056D1A3321A481DC
:10306400A2C286A4846468C9D092A125434B8696E3
:103074000CAD28696E182C216C81A2868464686466
:10308400686468646864686468A2A4006F102B2193
:1030940064A7686662CA571333433500701CAC1DBD
:1030A4006361848866646A626A626A626A626A8266
:1030B4006664826872611D00711AAC21638744647E
:1030C40086626A626A626A626A626A648688627234
:1030D400C302721028214C814284426244626A47CE
:1030E40035007314292154852244466228C2E8CA53
:1030F400AA4822A204007412A72144272C4A68C6B5
:1031040064684F224642280075172C216CA1846400
:103114006864686468646864686468844D050176FA
:10312400152A1D4CA16462286428662468248A8CAC
:103134004E500800771E301D7CA1A264626628648C
:1031440066286684246884248A848C844E48504883
:10315400080078142B2164C1828D0C8554DD5C95A4
:10316400048D0C058501791DAB2163A166622A6477
:103174002A662668266A226C226E70324A266A22E1
:103184006E0E007A0F292154E180A686889B22A224
:1031940003027B0F05A233474464278A64467623DF
:1031A400247C07C2315CE1077D1005A233414866E7
:1031B400641B2111913D51037E0C6A246565C54150
:1031C400C4C8080000000004FFFF00000524000834
:1031D400DD2300085D2300081815A115C819FF1880
:1031E40015A015C019FF1815AE15D5168015A8160B
:1031F4001F15D316001540158D161415201600152D
:10320400A115C815DA16021581168F15D916F115F0
:10321400DB1640152E15A415A619FF1815AF19FFB6
:103224001815AE19FF0000000001140A646432325C
:1032340000127A0000042896100400008000200088
:04324400E900000895
:04324800C1000008B9
:04324C0000127A00F2
:040000050800285D6A
:00000001FF
