:020000040800F2
:1000000000100020892B0008151D0008171D00088E
:1000100000000000000000000000000000000000E0
:10002000000000000000000000000000191D000892
:1000300000000000000000001B1D00081D1D00083E
:10004000D92B000800000000D92B0008D92B00088C
:10005000D92B0008D92B0008D92B0008D92B000870
:1000600000000000D92B0008D92B0008D92B00086C
:10007000D92B0008251D0008D92B0008000000001E
:10008000351D00080000000000000000D92B00080A
:1000900000000000D92B0008D92B0008D92B00083C
:1000A00000000000D92B000800000000D92B000838
:1000B0000000000000000000000000000000000040
:1000C00010B5064C2378002B07D1054B002B02D02E
:1000D000044800E000BF0123237010BD6C00002025
:1000E0000000000084340008044B10B5002B03D03E
:1000F0000349044800E000BF10BDC04600000000F6
:10010000700000208434000802B471464908490098
:10011000095C49008E4402BC7047C0460022430877
:100120008B4274D303098B425FD3030A8B4244D3BF
:10013000030B8B4228D3030C8B420DD3FF22090201
:1001400012BA030C8B4202D31212090265D0030BC0
:100150008B4219D300E0090AC30B8B4201D3CB03B6
:10016000C01A5241830B8B4201D38B03C01A5241F8
:10017000430B8B4201D34B03C01A5241030B8B42FA
:1001800001D30B03C01A5241C30A8B4201D3CB02E5
:10019000C01A5241830A8B4201D38B02C01A5241CA
:1001A000430A8B4201D34B02C01A5241030A8B42CD
:1001B00001D30B02C01A5241CDD2C3098B4201D3E5
:1001C000CB01C01A524183098B4201D38B01C01A63
:1001D000524143098B4201D34B01C01A52410309DA
:1001E0008B4201D30B01C01A5241C3088B4201D389
:1001F000CB00C01A524183088B4201D38B00C01A36
:10020000524143088B4201D34B00C01A5241411A5C
:1002100000D20146524110467047FFE701B5002069
:1002200000F006F802BDC0460029F7D076E7704717
:100230007047C04610B5040000F006FEFA218900A0
:10024000FFF76CFF00F070F801200022210040420F
:1002500000F030F8002010BD1023064A10B51168D8
:1002600000200B431360FFF7E5FF01F07FFC002047
:1002700010BDC04600200240024A136801331360DB
:100280007047C046C8010020014B18687047C0463F
:10029000C801002037B50190FFF7F6FF019C05006B
:1002A000631C5A1E9341E418FFF7EEFF401BA04267
:1002B000FAD337BD70B58901002814DA0F23C0B214
:1002C0000340083B114A9B089B009B1803221040E7
:1002D0009040FC321500114085408140DC69AC4300
:1002E0002143D96170BD032583082840A840FC350F
:1002F0002E00074A9B009B18C0228640294081405F
:1003000092009C58B44321439950EBE700ED00E084
:1003100000E100E01F2318401E3B8340014A1360A8
:100320007047C04600E100E0094A431E01209342A5
:100330000DD8C021074A08485360036A09061B020A
:100340001B0A0B4303620020072390601360704771
:10035000FFFFFF0010E000E000ED00E0F0B50B68EB
:1003600087B0029300230191029ADA4001D107B0CD
:10037000F0BD01229A4003920399029A0A4000922A
:1003800000D18CE0019A1021526816008E43022E93
:100390000ED107251D40AD000139A940DC08A4009D
:1003A0000419276A8F4301990969A9400F432762FD
:1003B00003245F00BC40E4430568013E2540AC4691
:1003C00003251540BD4061460D430560012E0FD841
:1003D00001998668CD682640BD40354385604668F2
:1003E000039915098E4301210D409D403543456019
:1003F000C56801992C408D688021BD4049052C437A
:10040000C4600A424BD00121264C0326A5691E4038
:100410000D43A561A4699D080C400594059C0F241B
:100420002149AD00B6006D18B4409021AF68C905F0
:10043000A743002488420CD01C490134884208D0CC
:100440001B490134884204D01A490334884200D140
:10045000023CB44000993C430E00AC60164CCD43C6
:1004600027683E43D10301D43E002E4026606768D2
:10047000009E3E43910301D43E002E406660A76873
:10048000009E3E43D10201D43E002E40A660E668A5
:10049000009F3743920201D42E403700E7600133BA
:1004A00062E7C0460010024000000140000400481E
:1004B00000080048000C004800040140002A01D058
:1004C000816170478162FCE703689A69920701D5F0
:1004D00000229A6201229969114202D199690A4364
:1004E0009A61704730B504680648656889052840F8
:1004F000039D890D2B43194312040A430243626092
:1005000030BDC046009800FCF8B504000E0017008E
:100510001D002268936933409B1B59424B41BB42EB
:1005200001D000200EE06B1CF4D0002D0BD1230075
:10053000202241331A70220000230320423240342B
:1005400013702370F8BDFFF79FFE069BC01A85420B
:10055000DFD2ECE7F8B503680400986910230E00B9
:10056000170018402025002815D1F8BD721C13D0A3
:10057000002E0BD12300202241331A7022000023C9
:1005800042324034137003202370EEE7FFF77CFE05
:10059000C01B8642EED323689A692A42E6D0102215
:1005A0002000DA61DD61FFF78FFF22680849536898
:1005B00001200B4053600423636423002200413375
:1005C0001D7000234232403413702370CDE7C046C3
:1005D00000E800FEF8B504000D00160002272368AD
:1005E0009B693B4201D0002018E032002900200026
:1005F000FFF7B0FF002818D16B1CF0D0002D0ED1F2
:100600002022636C032013436364230041331A7078
:10061000220000234232403413702370F8BDFFF7EC
:1006200033FE801B8542DAD2EAE70120F6E7F8B50F
:1006300004000D001600202723689B693B4201D06F
:10064000002016E0320029002000FFF783FF002879
:1006500016D1002D0ED12022636C03201343636456
:10066000230041331A7022000023423240341370B9
:100670002370F8BDFFF708FE801B8542DCD2EAE755
:100680000120F6E770B504000120002C3FD02500C2
:1006900041352B78DBB2002B05D12200403213709C
:1006A000200001F07BFA242301212B702368E068ED
:1006B0001A68A6688A431A6061681A4A0A401A6171
:1006C0009968194A11409960012821D180210902B5
:1006D000314399605868154901435960D968002031
:1006E0000A40DA60616922690A43A16909020A4382
:1006F000DA60216AE2690A431A60012219680A4332
:100700001A60202360642B7020634234207070BD17
:1007100084210902314399600228DBD1802109013B
:100720005960D7E7FFFFFFF0FF7FFFFF0080000267
:10073000F0B5050087B003910492059341352B78FD
:1007400004000220202B57D1230040331A78012ABD
:1007500052D001261E70FFF797FD80210700009000
:100760001923320009022000FFF7CEFE002842D1F3
:1007700021232B70113BAD192B70049B60646362C5
:100780006B469B8A606363858023628D9B01FF2A91
:1007900021D9FF222285009380235B040399200046
:1007A000FFF7A0FEFF26638D3A000C992000002B76
:1007B00019D1FFF73CFF002819D120212368274ECB
:1007C000D9615A6832405A6023004034413319706D
:1007D0002870207010E0628D92B2228500938023F1
:1007E000D2B29B04DAE7FFF7F5FE002806D0636C6F
:1007F0000120042B00D0032007B0F0BD636A2268FB
:10080000591C61621B789362638D228D013B013A12
:100810009BB292B263852285002AC4D1638D002BDE
:10082000C1D000970C9B80212000FFF76DFE0028AF
:10083000E1D1638DFF2B09D98023FF2226855B043C
:10084000009003992000FFF74DFEACE78023628DF6
:100850009B0492B22285D2B20090F2E700E800FE3B
:10086000F0B50400413422780300D2B20220202ADD
:1008700018D11D0040352E78012E13D01B68223070
:1008800020701E68233886431E601E68064F3E4057
:100890001E601E6831431960196808431860002003
:1008A00022702870F0BDC046FFEFFFFFF0B50500D5
:1008B00041352A780300D2B20220202A17D11C0029
:1008C00040342678012E12D01B68223028701E6812
:1008D000233886431E601E68054F09023E4031439F
:1008E000196019680843186000202A702070F0BD54
:1008F000FFF0FFFFF0B5036885B00500DB072FD4DC
:100900002B689B0700D581E02B681B0700D5BCE056
:100910002B685B0700D5DFE02B68DB061AD56A6918
:10092000B54C0423012A00D04BE1616B02260B4336
:100930006363636B1A436263FFF7A6FC0700636B94
:10094000334200D136E1F821626BAB698A43DB00A8
:1009500013436363296A002900D059E1002013E0A2
:100960000C21A54C62680A40042A06D063680B403B
:10097000082B0BD16368DB0308D523689B03BFD525
:100980006B68002BBCD1012005B0F0BD6B68012B5A
:1009900013D1802322685B0213432360FFF774FCAA
:1009A00080260700B60223683342A9D1FFF76CFC0A
:1009B000C01B6428F7D90320E6E7002B16D1236873
:1009C0008E4A80261340236023688D4AB602134066
:1009D0002360FFF759FC07002368334200D18FE7FB
:1009E000FFF752FCC01B6428F6D9E4E7052B05D1BC
:1009F00080232268DB0213432360CAE723687F4A0F
:100A00001340236023687E4A1340C6E70C227A4CC9
:100A10006368134206D063681340082B10D16368E3
:100A2000DB030DD423689B0702D5EB68012BAAD109
:100A3000F82122682B698A43DB001343236063E7B4
:100A4000EA680123002A0FD022680226134323609C
:100A5000FFF71AFC070023683342E9D1FFF714FCC3
:100A6000C01B0228F7D9A6E7226802269A43226013
:100A7000FFF70AFC07002368334200D144E7FFF781
:100A800003FCC01B0228F6D995E7EA6901235A4CFA
:100A9000002A10D0626A022613436362FFF7F4FB58
:100AA0000700636A334200D032E7FFF7EDFBC01B5B
:100AB0000228F6D97FE7626A02269A436262FFF74C
:100AC000E3FB0700636A334200D121E7FFF7DCFB59
:100AD000C01B0228F6D96EE780220021464C520541
:100AE000E3690091134208D1E3691343E361E369C9
:100AF00013400393039B012300938027414E7F0003
:100B000033683B4206D0AB68012B13D1226A1343F2
:100B1000236230E033683B433360FFF7B5FB01905D
:100B200033683B42EFD1FFF7AFFB019BC01A64284B
:100B3000F6D940E70122002B14D1236A0227934300
:100B40002362236A033293432362FFF79DFB06006F
:100B5000236A3B4225D0FFF797FB2B4B801B984223
:100B6000F6D928E7052B0BD1216A013B0B43236201
:100B7000236A1A432262FFF787FB022706000DE073
:100B8000236A934304222362236A9343C0E7FFF757
:100B90007BFB1D4B801B984200D90CE7236A3B422C
:100BA000F5D0009B012B00D0B6E6E369174A13404D
:100BB000E361B1E6FFF768FBC01B022800D8BEE680
:100BC000F9E6053203D1626B9A436263BBE6626B5E
:100BD0000226134301226363636B93436363FFF74E
:100BE00053FB0700636B334200D1B3E6FFF74CFBC6
:100BF000C01B0228F6D9DEE600100240FFFFFEFF10
:100C0000FFFFFBFF0070004088130000FFFFFFEFB5
:100C10000C22264C012063681340082B00D1B3E658
:100C20002368234A1340236002292FD1FFF72CFBAE
:100C300080260700B6042368334221D10F22E36ADD
:100C40009343EA6A1343E362696AAB6A62680B43DF
:100C5000184980250A4013436360802322685B049F
:100C600013432360FFF710FB0600AD0423682B42FB
:100C700000D073E6FFF708FB801B0228F6D99AE63E
:100C8000FFF702FBC01B0228D5D994E6FFF7FCFA58
:100C900080250600AD0423682B4200D15EE6FFF7F5
:100CA000F3FA801B0228F6D985E6C0460010024000
:100CB000FFFFFFFEFFFFC2FF70B5144C88B010228B
:100CC0002100684601F0B4FF210004AD102210316C
:100CD000280001F0ADFF0C220D4E73681A40082A5F
:100CE00011D10F206A46990C0140545CF26A02400F
:100CF000A95CDB0305D50748FFF710FA604308B08D
:100D000070BD0548FAE70348F9E7C0469C3400087F
:100D10000010024000127A0000093D00F7B50122E0
:100D2000434C060023680F0013408B421CD33268EB
:100D3000930723D4D30729D4012322681A4097426A
:100D400067D333683B4C5B076AD4FFF7B5FF636832
:100D5000394A1B061B0FD35CD840384B1860002063
:100D6000FFF768FA002008E0236893430B432360F1
:100D7000236813409942DAD00120FEBDF0202D49AE
:100D80004B688343B06803434B60D3E7294D7268D7
:100D90002B68012A1AD19B03EED503216B688B4384
:100DA00013436B60FFF770FA73680190012B15D144
:100DB0000C226B681340042BBED0FFF765FA019B31
:100DC000C01A1F4B9842F3D90320D6E7022A02D15A
:100DD0009B01E2D4D0E79B07DFD4CDE7022B12D0F2
:100DE0000C226B681342A7D0FFF74EFA019BC01A82
:100DF000134B9842F4D9E7E7FFF746FA019BC01A74
:100E00000F4B9842E0D80C226B681340082BF3D1AB
:100E100092E722689A43226022681A42ACD190E796
:100E20006368084A1340F268134363608DE7C04665
:100E30000020024000100240D634000804000020C8
:100E400088130000FFF8FFFF014B18687047C04689
:100E500004000020044B054A5B685B055B0FD35C14
:100E6000034A1068D840704700100240E63400087A
:100E700004000020F0B5036885B00500DB0328D529
:100E800080220021374C5205E3690091134208D1BA
:100E9000E3691343E361E36913400393039B012375
:100EA00000938027304E7F0033683B4226D0C0221B
:100EB000236A920013402D4E32D1236A1E406B6884
:100EC0001E43009B2662012B03D1E369284A13408D
:100ED000E3612A68D30706D5032022490B6B8343BD
:100EE000A86803430B630020930617D510211D4A01
:100EF000136B8B43E9680B4313630FE033683B4389
:100F00003360FFF7C1F9019033683B42CFD1FFF75F
:100F1000BBF9019BC01A6428F6D9032005B0F0BDC7
:100F200069680A409342C8D08023226A206A11006F
:100F30005B0203432362236A0E483140034023626D
:100F40002162D307B9D5FFF79FF907000222236A70
:100F50001342B2D1FFF798F9074BC01B9842F5D95D
:100F6000DBE7C0460010024000700040FFFCFFFFBE
:100F7000FFFFFFEFFFFFFEFF881300007047704781
:100F80007047704770470222036810B51969040062
:100F900011420ED0D96811420BD0053A1A619B69F3
:100FA000043202779B0700D179E0FFF7E9FF0023C5
:100FB0002377042223681969114210D0D96811429D
:100FC0000DD0093A1A61073222779A69C0239B0033
:100FD00020001A4269D0FFF7D3FF002323770822AD
:100FE0002368196911420ED0D96811420BD0113A09
:100FF0001A61DB690D32227720009B075BD0FFF777
:10100000BFFF00232377102223681969114210D0F3
:10101000D96811420DD0213A1A6119322277DA6962
:10102000C0239B0020001A424BD0FFF7A9FF0023EA
:101030002377012223681969114207D0D968114228
:1010400004D0033A1A612000FFF798FF802223683A
:101050001969114208D0D968114205D0023AFF3A05
:101060001A61200000F0C4F9402223681969114276
:1010700007D0D968114204D0813A1A612000FFF7E5
:1010800081FF202223681969114207D0D9681142D3
:1010900004D0413A1A61200000F0A9F910BDFFF711
:1010A0006EFF2000FFF76DFF81E7FFF768FF20006C
:1010B000FFF767FF91E7FFF762FF2000FFF761FF8F
:1010C0009FE7FFF75CFF2000FFF75BFFAFE7000043
:1010D000194A10B50368904202D0184CA04208D1BA
:1010E0007024A3434C68234390420BD0134CA0427E
:1010F00008D0134CA04205D0124CA04202D0124C92
:10110000A04203D1114C2340CC6823438024A34345
:101110004C69234303608B68C3620B68836290420F
:1011200005D0084B984202D0074B984201D10B6979
:1011300003630123436110BD002C01400004004003
:10114000002000400044014000480140FFFCFFFF38
:1011500070B504000120002C14D025003D352B78FB
:10116000DBB2002B05D122003C321370200000F0CE
:101170004BFD022320682B70211DFFF7A9FF0123DF
:1011800000202B7070BD0000F8B506000C00012097
:10119000002E3DD035003D352B78DBB2002B05D13C
:1011A00032003C321370300000F04AFD310002235F
:1011B000072201C92B70836893438360FFF788FF80
:1011C00032682368916896691943124BA7681E40DC
:1011D000A369106A1B023B4333430F4E27691E402D
:1011E000E3693F011B023B43E7683B43276A3F0338
:1011F0003B433343AA26B04306006069646800019C
:1012000020439160304393610123106200202B70D2
:10121000F8BDC046FCFCFFFF0303FFFF30B5846848
:10122000034D0A431B022C4013432343836030BD0C
:10123000FF00FFFF702270B50724006883689343A6
:101240004A681343A3430C6823438360502A1CD08D
:1012500002D8402A0AD070BD602A28D0702AFAD15C
:101260000B698A68C968FFF7D9FFF4E70122046AAD
:10127000036A934303628369EF3293431A000B6955
:101280001B01134383610462E5E701258A680B694A
:10129000016A046A1B01AC4304628469EF35AC4304
:1012A00023430A24A1430A4383610262D3E7102443
:1012B0008B680A69016A074DA143016284691203C0
:1012C0002C402243A024016A1B01A1430B438261ED
:1012D0000362C0E7FF0FFFFFF8B505003C352B7830
:1012E00004000220012B13D0260001273D362F7069
:1012F00030702000FFF79EFF402100202368DA684D
:101300008A43DA60DA6803490A40DA603770287085
:10131000F8BDC046FFBFFFFF10B501248C408A40D6
:10132000036AA3430362036A1A43026210BD00000A
:1013300010B504000C290ED80800FEF7E5FE070CD6
:101340000C0C250C0C0C290C0C0C2D000223226813
:10135000D0680343D36001222068FFF7DDFF2368D4
:101360000F4A934205D00F4A934202D00E4A93424D
:1013700004D18022596C12020A435A64012219686E
:1013800000200A431A6010BD22680423D068E0E7F9
:1013900022680823D068DCE722681023D068D8E7E9
:1013A000002C0140004401400048014030B50400D9
:1013B0003C34227803000220012A17D01D001B684C
:1013C0003D3528705A686E3082435A605A68086802
:1013D0004968024380205A609A6882439A609A68FA
:1013E00000200A439A6001232B70207030BD7047A3
:1013F0007047000070B504000568C2698368006921
:1014000029680343606903433548134301400B4394
:101410002B606B683349206A0B40E1680B436B60BB
:10142000A369A9680343304801400B430321AB6023
:101430002E4B1B6B0B402E49C85C80231B029A422B
:101440002CD1082827D8FEF75FFE05260B261E267E
:1014500026262100FFF7FEFC636840005B0802E0DF
:1014600063685808234BC0186168FEF757FE83B2C3
:1014700000200F22190091430A001B0721685B0F0F
:101480001343CB6070BDFFF717FCE5E763685808AE
:1014900080235B02E7E701200023EAE708281DD844
:1014A000FEF732FE051C0A1C141C1C1C1700FFF75B
:1014B000D1FC61684B0802E061680F4B4808C01816
:1014C000FEF72CFE80B2E8600020DBE7FFF7F4FBBC
:1014D000EFE7802361681B024808F0E70120D1E7AD
:1014E000F369FFFFFFCFFFFFFFF4FFFF0010024093
:1014F000BE3400080024F40000127A00436A30B5BC
:10150000DA0706D50168284C4A682240846A2243DB
:101510004A609A0706D50168244C4A682240C46A8A
:1015200022434A605A0706D50168214C4A68224086
:10153000046B22434A601A0706D501681D4C4A68AD
:101540002240446B22434A60DA0606D501681A4CF1
:101550008A682240846B22438A609A0606D5016815
:10156000164C8A682240C46B22438A605A0610D502
:101570000168134D4A68046C2A4022434A60802265
:101580005203944205D14A680E4C2240446C2243D7
:101590004A601B0606D502680B4953680B40816CF4
:1015A0000B43536030BDC046FFFFFDFFFFFFFEFF52
:1015B000FFFFFBFFFF7FFFFFFFEFFFFFFFDFFFFFEF
:1015C000FFFFEFFFFFFF9FFFFFFFF7FF70B5041E58
:1015D00001D1012070BD050069352B78DBB2002BED
:1015E00004D102006832137000F062FB2423012151
:1015F00022682B70136820008B431360FFF7FAFEFC
:101600000128E6D0636A002B02D02000FFF776FFA6
:1016100023680B495A6800200A4008215A609A68DA
:101620008A439A60012219680A431A602200202323
:10163000E0666A3268342B7013702070CAE7C046C7
:10164000FFF7FFFFF8B504000E0015001F00226829
:10165000D36933409B1B59424B41AB4201D0002020
:1016600018E0069B0133F3D0069B002B13D12368AF
:101670000C491A6803200A401A609A68A331FF31A6
:101680008A439A602200202369321370537000232A
:1016900068342370F8BDFEF7F7FD069BC01B83423C
:1016A000D5D2E4E75FFEFFFFF0B5070085B00393F6
:1016B00069373B7804000D0016000220202B46D12C
:1016C0000138002943D0002A41D08023A2685B0161
:1016D0009A4204D12369002B01D1014237D1230062
:1016E00068331A780220012A31D001221A700023AF
:1016F000E36621333B70FEF7C7FD230050331E80A5
:101700005E80802602907601210052310A8892B2D2
:10171000002A0DD1039B402100932000029BFFF77C
:1017200091FF002812D1202368343B7020700EE016
:101730000B880022013B9BB20B80039B802100930E
:101740002000029BFFF77EFF002802D0032005B097
:10175000F0BDA3682268B34208D12369002B05D1EC
:101760002B880235DB05DB0D1385CDE72B780135A2
:101770001385C9E710B5094C0949200000F052FE55
:10178000084B14220121200000F00CFE064B14220D
:101790007821200000F006FE002010BDB0000020DF
:1017A000EE340008CE340008D4340008FA2130B5F5
:1017B000890085B00500FEF737FD8CB2FA212800BC
:1017C0008900FEF7ABFC230082B2094901A801F0B1
:1017D00041FA084C0849200000F024FE01AB142215
:1017E0003721200000F0DEFD002005B030BDC046EE
:1017F000C8340008B0000020EE34000810B52829D5
:1018000003D0292905D0012010BD0120FEF742FD9B
:10181000F9E71000FAE70000F7B5143904000800F2
:101820000C292CD8FEF770FC132B2B071C202B2B1C
:101830002B2B2B2B1300002401261248124D01786C
:101840005218D2B2914204D1002C00D00170012074
:10185000FEBD1C784F1C6C5401333400F9B2F1E723
:101860000022084B1A70F2E73222064B05341B782F
:10187000E17F06480092044AFEF75AFFE7E700209E
:10188000E6E7C0468800002089000020DC01002037
:1018900010B5102494B03022002108A801F0D1F92D
:1018A00022000021684601F0CCF92200002104A8A2
:1018B00001F0C7F902230C9408930024013B08A807
:1018C0000B93FFF717F80723210068460093019454
:1018D00002940394FFF722FA212304A804930694A8
:1018E0000794FFF7C7FA14B010BD0000F0B58FB031
:1018F000FEF7B2FC854F864B00247B60854B0126AA
:10190000BB60FFF7C5FF1422002105A801F099F97B
:101910008020814A8002516901435161536911213C
:101920000340902000220293C005029BFEF7C6FDF3
:101930009020112305A9C0050593069307940894E8
:10194000FEF70CFD9020202305A9C00505930796FE
:101950000694FEF703FD1422210005A801F071F999
:101960000822210003A801F06CF96C4D6C4B280093
:101970002B6008236B60FA239B00EB60AC602C614A
:101980006C61AC61FFF7E4FB042305A92800059313
:101990000694FFF7A1FC03A9280003940494FFF721
:1019A00005FD604D604B28002B60604BEE606B6066
:1019B000AC602C616C61AC61EC612C62FEF762FE84
:1019C00021002800FEF74CFF21002800FEF76EFFE3
:1019D0002422210005A801F034F90822210003A8DF
:1019E00001F02FF9524D534B05A92B60524B2800A3
:1019F000EB606C60AC602C61AC61059607960B9651
:101A0000FFF7C2FB03A9280003940494FFF7CEFC60
:101A10004A4E4B4B30003360E1235B0273600C2372
:101A2000B4607361F4603461B461F461346274620F
:101A3000FFF7CCFD21002800FFF77AFC414D424B17
:101A4000424A4349280000F04FFA280001F05AF8B2
:101A50002800210001F05DF8280000F00EFA3D4C4E
:101A60007B68208880B29847BB6800209847280090
:101A700000F011FA01900028F1D10222364903A8A2
:101A800001F0D6F83223022203A93000FFF70CFE42
:101A9000324B1A78012AFCD16A46127930491A7001
:101AA000304A10880B88984226D2238832339BB262
:101AB0002380FA232088DB00984200D923800B88FA
:101AC00028009BB2138000F0D8F920887B6880B290
:101AD00098470020BB689847280000F0DCF90028F0
:101AE000F3D11F4B20491A8805A892B201F0B2F831
:101AF00032230A2205A9C8E72388323B9BB2238000
:101B00002388632BDBD86423D8E7C046CC010020B0
:101B1000AD1700087517000800100240D802002019
:101B2000002C0140DC010020005400400B020000AA
:101B30009802002000040040FFFF0000280200205F
:101B400000380140B0000020FD17000819180008F7
:101B5000403D000800000020BC340008A90000201F
:101B6000AA000020AC000020C234000801200A4B6B
:101B700082B099690143996180219A6949050240BF
:101B80000092009ADA690A43DA61DB690B4001933B
:101B9000019B02B07047C0460010024010B504001F
:101BA00088B01422002103A801F04BF8144B2268DE
:101BB0009A4222D18021134C8902626990200A4303
:101BC00062616369C0050B400193019BC023DB0088
:101BD000039312230493113B05930233069303A945
:101BE00001330793FEF7BAFB8021E26989030A43B8
:101BF000E261E3690B400293029B08B010BDC0464E
:101C0000005400400010024007B50B4B02689A4296
:101C100011D18020094A00019169014391619369C2
:101C20000022034001930D201100019BFEF742FBAF
:101C30000D20FEF76FFB07BD002C01400010024095
:101C400010B5040088B01422002103A800F0F9FFA9
:101C5000154B22689A4224D102228020134B800225
:101C6000D9691143D961D969114001910199596923
:101C7000014359615B6903A903400293029B9020D1
:101C8000C023C0050393BF3B049205930793FEF75F
:101C900065FB002210201100FEF70CFB1020FEF760
:101CA00039FB08B010BDC0460004004000100240DF
:101CB00010B5040088B01422002103A800F0C1FF71
:101CC000124B22689A421FD18020114BC0019969A2
:101CD0000143996180219A69890202400192019A27
:101CE0005A6990200A435A615B69C0050B40029310
:101CF000029B0C2303930A3B04930133069303A92D
:101D0000023B0793FEF72AFB08B010BD00380140E4
:101D1000001002407047FEE77047704710B5FEF7AD
:101D2000ABFA10BD10B50248FFF72DF910BDC04643
:101D3000D80200200122064B064810B51A7003682D
:101D4000054A5B6A9BB21380FFF71DF910BDC046C0
:101D5000A900002098020020AA0000200A4B10B51C
:101D600019680200002901D10849196069461868FC
:101D700082188A4206D900F031FF0C23036001204B
:101D8000404210BD1A60FCE7380100201C0300200F
:101D90000121114B11481A680A431A605A6802401F
:101DA0005A601A680E4802401A601A680D480240CC
:101DB0001A605A680C4802400F205A60DA6A82435F
:101DC000DA621A6B094802401A635A6B8A435A63F3
:101DD00000229A607047C046001002400CB8FF080D
:101DE000FFFFF6FEFFFFFBFFFFFFC0FFECFEFFFF64
:101DF0000300F0B53C331B7885B002930300050067
:101E000000263D331F7803685B7C03932B68B0B2D8
:101E10001B7CF4B2D9004143A86B89B241183A192E
:101E20000091D2B20021280000F058FE0134029B3C
:101E3000E4B2A34205D90136BB19039ADBB29A4238
:101E4000E4D805B0F0BD10B5036800211A7C03008A
:101E50003C331B78806BDB005A4300F0F2FE10BD70
:101E6000030010B504003D331970436B1B6898479D
:101E7000636B20005B68984710BD030010B5873383
:101E80001B780400002B01D0FFF7DDFF00212000AC
:101E9000FFF7E6FF10BD70B50400FFF7A9FF2300B0
:101EA0003D331D78013B1B78ED182368EDB25B7C58
:101EB000AB4204D8200000F033FE002070BD2300A8
:101EC00087331B78002B02D02000FFF7BCFF2000D7
:101ED0002900FFF7C5FF0120F0E700000123037090
:101EE000004870473C0100207FB50F250E006D446F
:101EF000009308491300084A040000F035FE28004A
:101F0000FFF7ECFF2A7801000096044B200000F058
:101F100021FC7FBD592A0008BD280008872500083C
:101F2000411808784B780002C01880B2704720B57D
:101F300005004018C0B2012B09D0A818C0B2002B70
:101F400005D0AA1AD0B2022B01D0681AC0B220BDA7
:101F500020B5851AEDB2012B09D04518EDB2002B42
:101F600005D0411ACDB2022B01D08018C5B228008D
:101F700020BD0020704770B50B780D0003704B78C2
:101F8000040043708B788370CB78C3700B79037136
:101F90004B7943718B798371CB79C3710B7A03725F
:101FA0004B7A43728B7A8372CB7AC3720B7B037347
:101FB0004B7B43738B7B8373CB7BC3730B7C112174
:101FC00003742800FFF7ACFF132160822800FFF79D
:101FD000A7FF1521A0822800FFF7A2FFE08270BDB5
:101FE00070B50468867A257872183541D2B2EBB2A2
:101FF000072A0AD9631C036063780824A41BE4B28F
:10200000A340083A2B43DBB2D2B28272012088404F
:102010000138184070BD70B5040000235834816544
:10202000A372030005006C3319782000FFF7D8FF76
:102030002B0020726D3319782000FFF7D1FF863511
:1020400060722B7823735A425341637370BD10B58D
:102050000C00FFF7C5FF0123013CE4B2A340C01A06
:1020600040B210BD0300F0B504000F008DB00B921C
:1020700058339A790392DB790693250058352B7AE9
:10208000039A9B1ADBB20493049A3B1C974201D932
:102090006B461B7CDBB208936B7928790C260A937C
:1020A0006B469E571B7E31005BB20793AB7B079A52
:1020B0000593FFF74DFF059B0990079A31000A9899
:1020C000FFF735FF0B9B0200002B16D0297B230066
:1020D00086331970059B099900932000089B00F036
:1020E000BAF9049B9F420DD3FF1A069BFFB201333E
:1020F000DBB2069300230393BFE7EB7A002BF0D10A
:10210000697BE4E7039B5834FB18A3716B461B7F84
:10211000E3710DB0F0BDF0B504008BB00700FFF720
:102120007AFF230061331B7858375BB20693230094
:102130006E3319783800FFF78AFF230008906F3359
:1021400019783800FFF783FF2300703319780500F2
:102150003800FFF77CFF08230990FB560393002B00
:102160005CDD6B461B7E089904935B195B425BB296
:102170000793BB7B079A05933879FFF7E9FE059B28
:102180003871079A0899060005007879FFF7CFFEA5
:10219000059B020001007871032B63D81800FDF73E
:1021A000B3FF02404A57039B0498F5188118EBB21D
:1021B000C9B200912000310000F0CCF900282DD0E8
:1021C00023000022012558339A71DA7123006A3303
:1021D00019783800FFF704FF230003906B33197858
:1021E0003800FFF7FDFE0600002203992000FFF7EC
:1021F00039FF310020002A00FFF734FF29003800A2
:10220000FFF7EEFE0028EFD12300072258339A563D
:1022100006998A42DADB1B7B8634237009980BB05F
:10222000F0BD049B0398F61A013511180136EBB284
:10223000C9B2F6B2BDE70122039B0498D61AAE19C3
:10224000AD18121A8A180131EBB2C9B2D2B2F0E756
:10225000039A049B8A1A9D1901320131EBB2C9B26B
:10226000D2B2A6E701003300A3E7F8B5046D0D0074
:102270001734FF2912D860290AD97C300388E41862
:102280006078002803D02378AB4205D1A01CF8BDAC
:102290004029F5D97A30F1E72418F1E77E3000883B
:1022A00002272418260000213000FFF739FE3900EC
:1022B00024183000FFF734FE04368542F3D8207826
:1022C000637800021843E2D0854201D1E01CDEE7CA
:1022D000A378E418F3E7F8B51F00030066330400A1
:1022E00018780E001500032808D8636DFDF70CFF61
:1022F00002151A1E200098472D18EDB223005C33FA
:1023000039001E705D702000FFF7AFFF011E03D083
:102310002000FFF700FFC0B2F8BD20009847361A32
:10232000F6B2EBE7200098472D1AE6E72000984721
:102330003618F5E7F7B51F0006000C00150000F091
:1023400035FA002301937368397830009847134AAF
:10235000030090421FD0124A01379042F3D02A0066
:1023600021003000FFF7B7FF32006632030010781B
:10237000032805D8FDF7C8FE02080B0DE418E4B2E7
:10238000019AD318DBB2DDE7ED18EDB2F8E7E41AF5
:10239000F5E7ED1AF9E70198FEBDC046FFFF000022
:1023A000FEFF000010B5024C4460FFF7C3FF10BDF4
:1023B00099270008036D70B5002B1DD0030000267F
:1023C00005000124020075339E5782352E701C577C
:1023D000833214700C331B78002B0DD0012B0CD1E1
:1023E000030077331B785BB29E4200DA2B707823B0
:1023F000C3569C4200DD137070BD0300742172331C
:102400001B7841565BB25B189E4200DA2B708C42FF
:10241000F2DD1170F0E70000014B43657047C046E4
:10242000731F0008036D10B504008B4206D00165D0
:102430006830FFF7A0FD2000FFF7BCFF10BD37B5E7
:10244000050040352D7806AC2478521B0094D2B29A
:10245000046BA04737BDF7B5050080352D7808AC73
:102460002478002D3FD0002B3DD0012B04D9022C25
:1024700030D10131C91AC9B201252C400500002C08
:1024800032D147352D7895422DD8050048352D7825
:10249000954228D905000600CB1845354636DBB2F3
:1024A0002D7836788B421CD28E4219D9731EDBB23E
:1024B0009D4218D22F1C8D4200D20F1CF9B2351C40
:1024C0009E4200D91D1C6B1A456B0094DBB2AC68B0
:1024D000A04708E0032CCFD10132D21AD2B2CBE709
:1024E00029008E42E4D8F7BD45352D788D42FAD8C3
:1024F000050046352D788D42F5D90500D3184735AE
:102500002E78DBB201352D78934211D295420ED947
:102510006B1EDBB29E42E6D2371C964200D2171CDD
:10252000FAB22E1C9D4200D91E1CB31ACCE7320011
:102530009542D8D9EEE710B504008A4206D20120B0
:10254000A34202D893429B41584210BD8342F9D81E
:102550000020FAE770B50D00010004001E004831AC
:1025600004AB47301B7809780078FFF7E4FF0028B8
:1025700008D02300453446331978207833002A00E8
:10258000FFF7D9FF70BDF7B508AC24780194072494
:102590001440A44601246546AC40050086352E78DB
:1025A000E4B20025012E02D82500012E14D0072701
:1025B0000668BA43367C72435118826B5118019AEF
:1025C000002A0BD10A78013B2A436240DBB20A7031
:1025D0000131002BF6D1F7BD0024E8E70200012607
:1025E0003E3201920A78013B2A4362400A706246F9
:1025F00001323A409446DBB2002A0CD1019A12789B
:102600008918020086321278012A02D83500012A80
:1026100005D0340003E06D006400EDB2E4B2002B9D
:10262000E0D1D8E7030070B53C331A780468D100D4
:10263000D970237C191C1F2B00D91F210300C9B29C
:10264000C9003E3319700100013B1D784031EB0099
:10265000DBB20B70617C56198E4201DD4A1BD2B28F
:102660000100D20041310B709B18020042321370FE
:102670000300F02243331A70A28AF02A00D81A709D
:10268000E38A4430037070BD13B504AC2478009421
:10269000FFF7D5FE13BDF0B50600050007000400E6
:1026A00085B04C304A364B35493733782A783978FB
:1026B0000390007800902000FFF74CFF2300803348
:1026C000002802D1187005B0F0BD01221A70230055
:1026D00045333A781978914200D21A702300463374
:1026E00032781978914200D91A70230047332A783A
:1026F0001978914200D21A70039B48341B782278D3
:102700009A42E0D92370DEE703000022453310B57A
:102710001A700200433212785A7002004132127865
:102720009A70020042321278DA70FFF7B4FF10BDDF
:1027300010B5FFF777FF10BD02000023493210B536
:10274000137093700132FF3313709370436B5B68A7
:10275000984710BD70B504002363230000253C3367
:10276000A16325651A705D7027331D702200223326
:102770001D700123863204981370537003686063E0
:10278000200098472000FFF7D7FF20006634FFF7AE
:1027900043FE257070BD0000002902D088B20A29CE
:1027A00000D101487047C046FFFF000000230830F9
:1027B000C377704710B5130004690A001721A047BA
:1027C00010BD07B56B46DA1D11700121FFF7F2FF4E
:1027D0000EBD002310B51A0004691821A04710BDD2
:1027E000002310B51A0004691921A04710BD70B567
:1027F000040016000D00FFF7ECFF40212000FFF75A
:10280000E0FF33002A00172125692000A847200097
:10281000FFF7E6FF70BD10B50A00C468002315215C
:10282000A04710BD10B50A00C46800231621A047B8
:1028300010BD10B51300C4680A001721A04710BDD1
:10284000002310B51A00C4681821A04710BD00234A
:1028500010B51A00C4681921A04710BD73B5050052
:102860000C002178172918D002D815290CD273BD75
:1028700019291BD9FE29FAD16B4662782921280033
:10288000DA7100F054F906E06B4662782800DA71DC
:10289000EE680023B0470234E3E76B46DA1D637845
:1028A000012128001370FFF7C4FFF4E7002328007C
:1028B0001A00EE680134B047D3E700001439F8B5C8
:1028C000040015001E000020052919D80800FDF796
:1028D0001BFC3703181E4448274E3378002B02D0C8
:1028E0002000FFF77DFF2000FFF773FF002120008D
:1028F000FFF767FF29002000FFF763FF012030701A
:10290000F8BD11002000FFF75CFF0120F8E71A4F27
:102910003B78002B02D02000FFF762FF3200182D19
:1029200006D829002000FFF762FF00233B70ECE788
:1029300018212000183DFFF75AFFEDB21836EDE7D9
:10294000631DDA7FFF2A01D1873ADA7727693300DE
:102950002A0014212000B847D2E70022064B1A7043
:10296000D3E7054D2B78002B02D02000FFF738FF6E
:1029700000232B70C9E7C046BC0100200A39F8B516
:10298000040016001F000800052959D8FDF7BCFBFC
:10299000030C58112332200000F071F8294920005F
:1029A000FFF75CFF0120F8BD2749002AF7D027492F
:1029B000F5E7E51C002A07D125492000FFF74EFF67
:1029C00023689B7CEB77EDE722492000FFF746FF69
:1029D0002368DB7CF6E72000FFF732FF812120002F
:1029E000FFF719FF31002000FFF71CFF2000FFF761
:1029F0002EFFD7E72000FFF723FF7D79E31CD97F67
:102A0000ED006D181021EDB22B0919432000FFF7DE
:102A100002FF0F2120002940FFF7FDFEB023B97906
:102A200020001943FFF7F7FE3979013EC900C9B20A
:102A30003A682000F6B2FFF7FCFE002EF4D1D5E78D
:102A40000020B0E75A3D00088F3D0008943D000883
:102A50004C3D0008533D000810B5092904D1044934
:102A600000F008F8012010BDFFF788FFFBE7C04623
:102A70009C3D000801608B7C0330C37770470023C6
:102A800070B51A00282145690400A8470023E568AD
:102A90001A0014212000A847200001224B2100F039
:102AA00046F8236820001A79292100F040F8200018
:102AB00000224B2100F03BF8236820001A792921DD
:102AC00000F035F8200001224B2100F030F8236897
:102AD00029215A79200000F02AF870BD13B56C4600
:102AE0002371049B6171A271009384686B4601227B
:102AF0000F21A04716BD002310B51A0084680921D4
:102B0000A04710BD002310B51A0084680A21A04711
:102B100010BD10B50A00846800230B21A04710BD2A
:102B2000002310B51A0084681021A04710BD10B50D
:102B300000234469A04710BD002070470023094AC4
:102B400003608260C26002614261021DD377C21DD0
:102B5000D3770132D3778361421DFF332930D37796
:102B600003707047392B0008F8B504000F001600F9
:102B70001D00FFF7E3FF069BA760E6602561636128
:102B80002000FFF7B8FFF8BD0D4885460D480E49F7
:102B90000E4A002302E0D458C4500433C4188C42B7
:102BA000F9D30B4A0B4C002301E013600432A2421C
:102BB000FBD3FFF7EDF800F017F8FEF797FEFEE7FE
:102BC00000100020000000206C000020503E000893
:102BD0006C0000201C030020FEE70000014B186879
:102BE0007047C0460800002070B500260C4D0D4C03
:102BF000641BA410A64209D1002600F043FC0A4D34
:102C00000A4C641BA410A64205D170BDB300EB585A
:102C100098470136EEE7B300EB5898470136F2E7E4
:102C2000483E0008483E0008483E00084C3E000868
:102C3000002310B59A4200D110BDCC5CC4540133BE
:102C4000F8E703008218934200D1704719700133EE
:102C5000F9E700000EB410B59DB002A9029008611A
:102C60000B48822488604861012040421FABC88124
:102C7000084804CBA400006801938C8100F0CCF8D4
:102C80000023029A13701DB010BC08BC03B0184793
:102C9000FFFFFF7F08000020032370B5CD1C9D437C
:102CA000083506000C2D1ED20C25A9421DD8300077
:102CB00000F06DFB254A14682100002919D1244C2D
:102CC0002368002B03D1300000F032FB2060290084
:102CD000300000F02DFB431C2CD10C23300033605E
:102CE00000F056FB03E0002DDFDA0C2333600020F8
:102CF00070BD0B685B1B1AD40B2B03D90B60CC186F
:102D0000256003E08C420ED163681360300000F050
:102D10003FFB200007220B30231D9043C31AE7D04E
:102D20005A42E250E4E74B6863600C00EEE70C00A7
:102D30004968C2E70323C41C9C43A042E0D0211A87
:102D4000300000F0F5FA431CDAD1C6E7C0010020DC
:102D5000C4010020F0B58E6885B007000C00039216
:102D600001939E4239D890238A89DB001A4234D0DD
:102D70000325096923685B1A0293636902985D431E
:102D8000EB0F5D19019B6D1001331B18AB4200D98D
:102D90001D00530532D529003800FFF77DFF061EC0
:102DA00009D10C233B6040230120A28940421343F8
:102DB000A38105B0F0BD029A2169FFF739FFA3890D
:102DC000144A1A4080231343A381029B2661F618FC
:102DD00026606561019EED1AA560019BB34200D299
:102DE0001E0032000399206800F0BFFAA36800209B
:102DF0009B1BA36023689E192660DAE72A0038002F
:102E000000F012FB061EE0D12169380000F0C2FA82
:102E1000C7E7C0467FFBFFFFF0B59FB00290059368
:102E20008B890F0016001B0611D50B69002B0ED1E4
:102E30004021FFF731FF38603861002805D10C23AD
:102E4000029A013813601FB0F0BD40237B6100235C
:102E500006AD6B6120336B761033AB76340023788C
:102E6000002B47D1A31B04930DD0A31B32003900C4
:102E70000298FFF76FFF431C00D1B5E06A69049B1D
:102E8000944663446B612378002B00D1ACE00122AF
:102E9000002352426A6002A95432521801342B6056
:102EA000EB60AB601370AB65584E052221783000A3
:102EB00000F050FA621C002820D12968CB0604D506
:102EC000532302AE20309B1918700B0704D55323EF
:102ED0002B2002AE9B19187023782A2B16D00020C5
:102EE0000A21099B2278303A092A55D9002815D0A1
:102EF000099313E0252BB5D00134B0E70123801BE3
:102F00008340296814000B432B60CDE7059B181DF7
:102F10001B680590002B39DB0993140023782E2BB6
:102F20000BD16378621C2A2B3ED1059B02341A1DFB
:102F30001B680592002B34DB0793354E2178032262
:102F4000300000F007FA002806D04023801B8340A1
:102F50002A68013413432B60217806222D48661C11
:102F6000297600F0F7F9002846D02B4B002B2FD103
:102F70002968059B0722C90528D59B189343083368
:102F800005936B69039A9B186B6167E75B42EB6083
:102F900002230B432B60C0E74B4301349B180120F5
:102FA000A0E701235B42C7E7002314000A201A00B0
:102FB0006B6021783039092903D9002BBDD00792E5
:102FC000BBE74243013452180123F2E70733D5E748
:102FD00005AB00933A00114B2900029800E000BFB6
:102FE0000390039B0133CCD1BB890B985B0600D4C3
:102FF00029E70120404226E705AB00933A00074B42
:103000002900029800F07AF8EAE7C046143E00086A
:103010001A3E00081E3E000800000000552D000862
:10302000F7B5150001938A680B6900900C00934274
:1030300000DA130022002B6043321278002A01D0FC
:1030400001332B6023689B0602D52B6802332B606B
:10305000062723681F4027D0230043331B785A1EBE
:1030600093412268920630D422000199433200989D
:10307000089EB047431C25D0062320682A68E168D3
:1030800003400025042B03D18D1AEB43DB171D40B1
:10309000A3682269934201DD9B1AED180027BD4207
:1030A00020D1002010E00137E3682A689B1A9F4274
:1030B000D2DA22000123193201990098089EB04704
:1030C000431CF0D101204042FEBD3020E1184331C5
:1030D000087021005A1C45310978A2184332023386
:1030E0001170C1E7220001231A3201990098089E4D
:1030F000B047431CE6D00137D1E70000F0B58BB0F4
:1031000006920A0043320793059004920A7E0C004F
:10311000109B6E2A00D18FE017D8632A2CD008D8D4
:10312000002A00D199E0582A54D026004236327045
:1031300029E0642A01D0692AF7D121681A680806B3
:1031400023D5111D1960156825E0732A00D188E088
:1031500008D86F2A29D0702AE7D1202209680A43AB
:10316000226003E0752A20D0782ADED1220078215F
:10317000453211706C4A30E00E001A684236111D5B
:10318000196013683370012379E04906D9D5111D00
:1031900019600023D55E002D03DA2D23049A6D42B9
:1031A0001370624B0A2703932FE020681968050605
:1031B00003D5081D18600D6805E04006F9D50D68B7
:1031C000081D1860ADB2594B082703936F2A18D019
:1031D0000A2716E045310A70544A03921A6821689A
:1031E000101D18601568080622D5CB0702D52023CC
:1031F000194321601027002D03D1202322689A4310
:1032000022602300002243331A706368A360002BFE
:103210005CDB0422216891432160002D58D1049E7B
:10322000002B64D02600039B42361B7833705EE08F
:103230004806DAD5ADB2D8E709681A68080605D598
:10324000111D1960136862691A6006E04906F7D516
:10325000111D19601368A28A1A800023049E23613D
:1032600054E01A68111D1960166800216268300068
:1032700000F070F8002801D0801B60606368236153
:103280000023049A137041E02369320006990598DF
:10329000079DA847431C43D0236800259B070FD4F4
:1032A000099BE06898423DDA18003BE022000123C8
:1032B000193206990598079EB047431C30D0013556
:1032C000E368099A9B1A9D42F0DBE9E7002DA9D03B
:1032D000049E28003900FCF7A7FF039B013E5B5CBE
:1032E000280033703900FCF719FF051EF1D1082FB3
:1032F00009D12368DB0706D563682269934202DCA3
:103300003023013E3370049B9B1B2361079B09AA5A
:1033100000932100069B0598FFF782FE431CB3D162
:10332000012040420BB0F0BD363E0008253E0008AB
:10333000002370B5064C050008002360FEF70EFD63
:10334000431C03D12368002B00D02B6070BDC04606
:1033500018030020C9B28218904201D100207047A2
:1033600003788B42FBD00130F6E710B5884202D9D2
:103370008B18984208D300239A4207D0CC5CC454DF
:103380000133F9E78B5C8354013AFBD210BD7047DF
:103390007047000070B50500002910D00C1F23688D
:1033A000002B00DAE4182800FFF7F1FF1D4A13682C
:1033B000002B05D1636014602800FFF7E9FF70BDA2
:1033C000A34209D9216860188342F3D118685B6869
:1033D00041182160EEE713005A68002A01D0A2428A
:1033E000F9D919685818A0420BD120680918581843
:1033F00019608242E0D110685268411819605A6021
:10340000DAE7A04202D90C232B60D5E721686018C7
:10341000824203D1106852684118216062605C608A
:10342000CAE7C046C0010020F8B507000D0016002D
:10343000002905D11100FFF72FFC04002000F8BD82
:10344000002A03D1FFF7A6FF3400F7E700F012F8D7
:103450002C008642F2D931003800FFF71DFC041E13
:10346000ECD029003200FFF7E3FB29003800FFF71A
:1034700091FFE3E70B1F1B68181F002B01DA0B58A5
:10348000C0187047F8B5C046F8BC08BC9E467047E7
:0C349000F8B5C046F8BC08BC9E4670476A
:10349C0002030405060708090A0B0C0D0E0F101089
:1034AC000102030405060708090A0B0C0D0E0F1088
:1034BC000502000408022564200D0A0025642E254F
:1034CC00640054696D65200073000000000000006A
:1034DC0000000102030406070809000000000102B5
:1034EC0003045F00040305050405061614FDFC0E19
:1034FC00FC0EFE028805D70834200600602C012142
:10350C0011C4253443E2E0C0424499C44184040010
:10351C002209A5644641821702231F8B616449422C
:10352C004C424C42E660E26046424C42E660E2604D
:10353C0046424C424C420800242349A65B2930AC3D
:10354C004622A224A224A422C8E620E420C628A253
:10355C0024A422A42242A62C300800252CEEE17BC8
:10356C0065464A64224826444826244A26424A2470
:10357C00DD8870CC98884854884C90884C508C4C82
:10358C008C92A0A8A950002623D0258C8B5644528F
:10359C004652467242B478A6C64668822468A66A29
:1035AC00886A8AA6E620E46604002708A2642EE155
:1035BC006000281205A233474464446444466F6695
:1035CC0064668404291105A2334148664666469F09
:1035DC008C888CA8012A12E7E0456524C94484C86C
:1035EC008844C4489211002B0E4A215C4950A38395
:1035FC000323418D002C0CE4602B43E22062241B3E
:10360C00002D0865E034E141002E0B84202C43E2B0
:10361C00204202002F10C6213C495190A220454166
:10362C008A8214013014C9255C676862444662C6FC
:10363C00BF99901199189A01310CC7295C4768A45D
:10364C0068FFC9013217C9255C87466462C66642A9
:10365C00666C6A6C6A4A4CD5C141013319C9255C48
:10366C0087466462C66642664C68526E42C6CD841A
:10367C00C84C09003419C9255C2F4E6C8A51C44CB6
:10368C00C848CC48CC44D0C481D4D854013517C9CF
:10369C00255CE320E22430A14DCCDCD8848C9B0942
:1036AC00919912003618C9255CA764858C8DC4D8F5
:1036BC00C408C51A6F266426468466003712C925CD
:1036CC005CE141D994989C989CD8AAB18D0038188B
:1036DC00C9255C674846428AAAE842C4C824E4A8C3
:1036EC008AAA46860600391AC9255C674864624670
:1036FC0062C69B89099289B109191B8991911A009B
:10370C003A0F24253443E220424CE2204202003B93
:10371C001084653343E220424CE22062241B003CBF
:10372C000C4A215C518C8833420E053D0CC9A45CBB
:10373C00E1013DCCC101013E0C4A215C4190674442
:10374C009C09023F14C92154A744E4C66642664C46
:10375C00F7106254644200402ACF2184EB6C4C4633
:10376C003244A644424409898C08898C08858C888B
:10377C00841A1109251322221344923163620741E2
:10378C0000411ECE1D742F5A76963262324430663A
:10379C002E662C6AEA40286C286E446E82AA00427F
:1037AC0022CC2174E160668664686468646864662F
:1037BC00E62068C9D4C4D4C4D4C4D4C4D0C4810C45
:1037CC00004318CC2174A92484C598C45821CB0D6E
:1037DC0023E622C66268A46A004423CE2184E160F9
:1037EC006A88666C646C646E626E626E626E626E27
:1037FC00626E626C646C6488E46008004523CB21C3
:10380C006CE1806268624A6226246226246244E883
:10381C0068446826682624622C624A62E8E0004606
:10382C001FCB216CE1806268624A622624622624E6
:10383C006244E868446826682668709D1500472035
:10384C00CD217CA9248684644C644C623062306245
:10385C0074D541D8C8D4C8D40C09554904004822A1
:10386C00CE2184A1A8626C646C646C646C646CE49E
:10387C00A0646C646C646C646C646C646CA2A80072
:10388C00490BC5254CA16264FF8B024A15CA1D6405
:10389C00AB6C6E9FC84C904C904C088D880C1101F1
:1038AC004B20CE2184A1A6644A68486A466C446EBB
:1038BC0042D0F06E826C846A866888668AA2C600E2
:1038CC004C11CA2164A16C6E7F15311531243173F2
:1038DC00604D33D1219CC1AC848CA68A26622862AF
:1038EC002664266226642662266424642666226484
:1038FC0026662264268666266866266866642868BC
:10390C00A226A6004E25CE218481AA826A862A8808
:10391C002AA828054D500849500C455050511451B7
:10392C001451D8CC98485908004F18CE2184C98C12
:10393C0084666C646C62D00F27C646C66648C88C19
:10394C0000501ACC2174E1406886648862886288D1
:10395C0062886286E420687287750051204E22834B
:10396C00C98C84666C646C62D02F682646464466AB
:10397C00246628CA8C8527224B47005223CD2184EC
:10398C00E1806688646A646A646A6468E6206A66D0
:10399C0068666886666866686668C268020053195D
:1039AC00CA2164872264C590C4540499D59599554D
:1039BC0059D5C9444809005413CB216CE1C064CDDE
:1039CC008CCC8CCC4CD0E07E57035522CE2184A1DC
:1039DC00A8626C642E662E662E662E662E662E6689
:1039EC002E662E662E662E6848CE0800561FCF1DFA
:1039FC0074C1A8826C662E882A6C2A6C2A6E26707A
:103A0C00267222742276783A3C0E00572FD41D9CD5
:103A1C00C1C2A482866866682A8886266C86266C53
:103A2C0086268C2282227022642270226422908646
:103A3C0074687468362C382C0C00581DCF218CC33C
:103A4C00A486688A466E44D09498B4D450844C684A
:103A5C006A88668CA2C8005917CD217CC186824A1F
:103A6C00662A88466A268C22B072740F6F005A1A26
:103A7C00CC216CE14158D9441845141DE1201DABF3
:103A8C0008B288B1B28383005B0A04A633C144FF39
:103A9C004F085C14C8214C414C4E4C4E4C4E4C4E75
:103AAC004C4E4C4E4C005D0A04A2338144FF4F0C2B
:103ABC005E0F08A14D474C8A8846440B2122015FBA
:103ACC000849604BE10101600985A43E4166910003
:103ADC0061142A215CE3646642688C6662CDC4CCB6
:103AEC00C4089301621ACC1D6481722F886846A6A3
:103AFC0026A626A626A626A6266846246A006310B5
:103B0C00292154A764C4A86CAB8819191200641A33
:103B1C00CC216C8F72471423331453135313531348
:103B2C00531353233344140465142A215C876864AB
:103B3C0062C8E8E0406E2C6248A604006610C821FA
:103B4C003C87466257433653FBA80600671FEB21A0
:103B5C005B5370C46864464846486664C848F220A3
:103B6C00E820426A424C6248E606006819CC216C97
:103B7C0081722F6A48488646864686468646864621
:103B8C0086264A0A690BC5213463642DC97E516AA5
:103B9C0010471633697B10A2FD9185850809006BCF
:103BAC0018CC216C81724F4A668446C226C4AE265C
:103BBC0088466866282A0C6C0AC521348164FF1774
:103BCC00056D1A3321A481A2C286A4846468C9D06D
:103BDC0092A125434B86960CAD28696E182C216C4E
:103BEC0081A28684646864686468646864686468D4
:103BFC00A2A4006F102B2164A7686662CA57133306
:103C0C00433500701CAC1D6361848866646A626A0B
:103C1C00626A626A626A826664826872611D00719D
:103C2C001AAC216387446486626A626A626A626A59
:103C3C00626A6486886272C302721028214C8142C7
:103C4C0084426244626A47350073142921548522E8
:103C5C0044466228C2E8CAAA4822A204007412A7E9
:103C6C002144272C4A68C664684F224642280075B6
:103C7C00172C216CA1846468646864686468646847
:103C8C006468844D050176152A1D4CA16462286474
:103C9C0028662468248A8C4E500800771E301D7CC0
:103CAC00A1A2646266286466286684246884248AD7
:103CBC00848C844E485048080078142B2164C182AF
:103CCC008D0C8554DD5C95048D0C058501791DAB3F
:103CDC002163A166622A642A662668266A226C22FF
:103CEC006E70324A266A226E0E007A0F292154E138
:103CFC0080A686889B22A203027B0F05A233474431
:103D0C0064278A64467623247C07C2315CE1077DF4
:103D1C001005A233414866641B2111913D51037E6D
:103D2C000C6A246565C541C4C8080000000004FF86
:103D3C00FF00000031270008092700088926000829
:103D4C001815A115C819FF1815A015C019FF1815BD
:103D5C00AE15D5168015A8161F15D31600154015CF
:103D6C008D16141520160015A115C815DA16021596
:103D7C0081168F15D916F115DB1640152E15A415C5
:103D8C00A619FF1815AF19FF1815AE19FF00000082
:103D9C000001140A6464323200127A00000428967E
:103DAC001004000080002000000000000000000053
:103DBC0000000000000000000000000000000000F7
:103DCC0000000000000000000000000000000000E7
:103DDC0000000000000000000000000000000000D7
:103DEC0000000000000000000000000000000000C7
:103DFC0000000000000000000000000000000000B7
:103E0C000000000000000000232D302B2000686C07
:103E1C004C006566674546470030313233343536E1
:103E2C00373839414243444546003031323334351A
:0C3E3C0036373839616263646566000047
:043E4800E900000885
:043E4C00C1000008A9
:103E5000F401000000127A000C00002000000000B5
:103E6000D43D0008F43D0008B43D00080000000007
:103E70000000000000000000000000000000000042
:103E80000000000000000000000000000000000032
:103E90000000000000000000000000000000000022
:103EA0000000000000000000000000000000000012
:0C3EB00000000000000000000000000006
:0400000508002B893B
:00000001FF
